SP18994  BANK OF THE WEST         120106122906                                                                                                                                                                                                                                                                                                                                                                                                                                                  
SP28994  NEOLIVE          CARLA     D5050636460712676225 S 40TH ST                OMAHA               NE68107                                    21300000000002701863C000013557000000139106200000000000000013910620480480664006640                                 120202120202011503121506                    000   65   00000035362                      0000000000012150600012147109800000000000000000000000000000000000000000000                                                            
SP28994  NEGALVAN         MARTIN     5946243590000002401 S 17TH ST                OMAHA               NE68107                                    21300000000002702161C000015200000000161236800000000000000016123681201200730007300000000190030000001900300000019003030703030703041503031513                    000   65   0000000000000000092368           0000000000012080600012161796300000000000000000000000000003626000000000000                                                            
SP28994  NEJURA           MICHELLE   5078628530415657224 CHANDLER HILLS DR        BELLEVUE            NE68147                                    21300000000002702866C000010000000000106105300000000000000010610531201200739007390000000125600000001256000000012560071003071003082003072013                    000   65   0000000000000000061053           0000000000012290600012190330600000000000000000000000000002591000000000000                                                            
SP28994  NEVALADEZ        DAVID      5072325450000005124 S 20TH ST                OMAHA               NE68107                                    21300000000002703594C000010200000000107767100000002400000010776710600380614006140000000209380000002093800000020938020904020904032004022009                    000   65   0000002703500000030636           0000000000012280600012230531100000000219000000000000000000024800000000000                                                            
SP28994  NESOLIS          JESUS     A5604224620521795062 S 40TH ST                OMAHA               NE68107                                    21300000000002703818C000008557000000090709600000000000000009070960370370696006960000000280950000002809500000028095041604041604060504050507                    000   65   0000001700100000034395           0000000000012070600012241418800000000363000000000000000000073400000000000                                                            
SP28994  NERUIZ-HERNANDEZ MAYRA     L5083357900321811705 N ST                     OMAHA               NE68107    CHAVEZ         JESUS      06135821300000000002705020C000007757000000082442200000000000000008244220360361047010470000000267880000002678800000026788100604100604110604100607                    000   65   0000001592900000032793           0000000000012270600012275186000000001076000000000000000000221600000000000                                                            
SP28994  NEBOGENREIF      ROBERT     50792384506196061 N CEDAR ST                 RED CLOUD           NE68970                                    21300000000002707405C000005000000000053038100000000000000005303810960960684006840000000071900000000719000000007190082605082605092605082613                    000   65   00000030381                      0000000000012130600270178819200000021141000000000000000000000000000000000                                                            
SP28994  NEJOHNSON        SUSAN     E5056448610526517311 S 140TH ST               OMAHA               NE68138                                    21301000000003700889C000020112500000208138500000000000000020813850610610750007500                                 072701072701092001122006                    000   65   00000070135                      0000000000012200600012047273300000000000000000000000000000000000000000000                                                            
SP28994  NEEVANS          JAMES     F5075482030301452711 NO 58TH ST               OMAHA               NE68104                                    21330000000004700303C000043487060000476455500000000000000047645551201200999009990000000629640000006296400000062964020101020101030501100611                    000   65   00000415849                      0000000000012270600012004200700000070167000000000000000000000000000000000                                                            
SP28994  NEPERRY          MERNA     L5065814510920452720 NORTH 51ST STREET        OMAHA               NE68104                                    21330000000004700389C000011500000000136698600000000000000013669861201200945009450000000176530000001765300000017653050301050301061701011612                    000   65   0000011656000000100426           0000000000012150600012025878500000022975000000000000000001979500000000000                                                            
SP28994  NEMADSEN         DAVID     W5077624090000006762 PINKNEY ST               OMAHA               NE68104                                    21330000000004700645C000006000000000065435400000000000000006543540600600699006990                                 120101120101011502121506                    000   65   0000002161500000032739           0000000000012150600012070938100000000000000000000000000000000000000000000                                                            
SP28994  NEMCKAY          MICHAEL   S5088685231214576317 CAMDEN AVE               OMAHA               NE681042020                                21330000000004701613C000021000000000220913500000000000000022091350600600649006490000000433020000004330200000043302010403010403021503011508                    000   65   0000000000000000109135           0000000000012010600012149855400000000000000000000000000000542700000000000                                                            
SP28994  NEHETRICK        JEROME    E5076898240205514905 N 113TH ST               OMAHA               NE68164    HETRICK        GLENDA    F09034921330000000004702800C000015325000000164856700000000000000016485670600600599005990000000318660000003186600000031866102003102003112003011909                    000   65   0000000000000000116067           0000000000012280600012211147900000000000000000000000000001604600000000000                                                            
SP28994  NEMASTERS        JAMES      4569464921106545829 LAKE STREET              OMAHA               NE68104                                    21330000000004705542C000001550000000016200000000000000000001620000240241274012740000000076790000000767900000007679081905081905091705081707                    000   65   0000000202400000004976           0000000000012210600270177681000000000243000000000000000000059700000000000                                                            
SP28994  NEBROOKINS       ANGELA     5050218500000002242 GRAND AVE                OMAHA               NE68110                                    21333000000006700446C000033055500000368499400000000000000036849941801800975009750000000390370000003903700000039037040502040502052802072817                    000   65   0000000000000000379444           0000000000012180600012091639000000000000000000000000000018052100000000000                                                            
SP28994  NEMIRANDA        ARCADIO   R4527663260000005326 NORTH 26TH STREET        OMAHA               NE68111                                    21333000000006703225C000001550000000016186100000000000000001618610240241065010650                                 122304122304012305122306                    000   65   0000000198800000004873           0000000000012260600012292291700000000000000000000000000000000000000000000                                                            
SP28994  NEFORGET         TIM        0767223330302721724 N 102ND AVE              OMAHA               NE68114                                    21333000000006703380C000007040000000075628200000000000000007562820480480674006740000000180110000001801100000018011021505021505031505021509                    000   65   0000001899500000033287           0000000000012270600012300618100000005669000000000000000000993500000000000                                                            
SP28994  NEPALMER         KEVIN      505907545040863408 S EASTWOOD                NORFOLK             NE68701    PALMER         JODIE      05306521331000000007700296C000016000000000168390700000000000000016839070600600699006990                                 122701122701012002122006                    000   65   0000000000000000083907           0000000000012180600012077958200000000000000000000000000000000000000000000                                                            
SP28994  NEGROSSE         JAN       A5085072461009422223 MADISON AVE              NORFOLK             NE687014534                                21331000000007701694C000011365000000121615300000000000000012161530610480674006740000000240310000002403100000024031081803081803101003031309                    000   65   0000003523600000044417           0000000000012260600012189496800000001079000000000000000000136000000000000                                                            
SP28994  NEREZAC          WILLIAM   E507708834091151901 PASEWALK APT 2            NORFOLK             NE68701                                    21331000000007705185C000005350000000057755100000000000000005775510480480974009740000000146130000001461300000014613022405022405040505030509                    000   65   0000001554100000027010           0000000000012010600012301609900000004995000000000000000000868200000000000                                                            
SP28994  NEVOGT           MELVIN    E5438301570306693029 S 120TH ST               OMAHA               NE68144                                    21334000000008700845C000025000000000273149500000000000000027314950600600784007840000000553350000005533500000055335051702051702063002053007                    000   65   0000009202800000139467           0000000000012060600012105791300000000754000000000000000000114300000000000                                                            
SP28994  NEKEMPER         BOBBY     L50813126912027212504 LAMONT ST               OMAHA               NE68144                                    21334000000008705726C000004050000000042462200000000000000004246220480480928009280000000106160000001061600000010616092204092204102004092008                    000   65   0000000000000000019622           0000000000012080600012274077200000000000000000000000000000385400000000000                                                            
SP28994  NEWILSON         LYNETTE   M507133222021381817 N 77TH AVE                OMAHA               NE68114    WILSON         DANIEL    G08088021334000000008706016C000003050000000032100600000000000000003210060250250928009280                                 110104110104123104113006                    000   65   0000000000000000016006           0000000000012080600012281174800000000000000000000000000000000000000000000                                                            
SP28994  NEFOULK          ARTHUR    L3166041901018518517 VERNON AVE               OMAHA               NE68134                                    21336000000009700732C000018300000000222120600000000000000022212061201200925009250000000284570000002845700000028457121501121501011702121711                    000   65   0000018799700000203209           0000000000012110600012074302600000047388000000000000000005122200000000000                                                            
SP28994  NEREINER         JILL      M5079251791023692335 N 65TH ST                OMAHA               NE68104                                    21336000000009701444C000031209000000429115200000000000000042911521801800790007900000000407610000004076100000040761091302091302101302031618                    000   65   0000060530300000564949           0000000000012180600012130166700000311569000000000000000029079800000000000                                                            
SP28994  NEMEYER          MATTHEW   J4845269090605464321 FORT ST                  OMAHA               NE68111    MEYER          AMY       S06125121336000000009702009C000051050000000551250100000000000000055125011850600830008300000000554270000005542700000055427022503022503082203012119                    000   65   0000029443100000113070           0000000000012070600012160156100000019307000000000000000000741400000000000                                                            
SP28994  NEMADSEN         JAMES     G4826885850905614028 LAUREL AVE               OMAHA               NE68111    MADSEN         RENATE    F09076721336000000009706157C000005600000000060355600000000000000006035560600400574005740000000116110000001161100000011611091604091604102504092509                    000   65   0000002567300000017883           0000000000012180600012272248100000002849000000000000000000198500000000000                                                            
SP28994  NEOCEAN          JOYCE     A5054648050108395902 N 42ND ST                OMAHA               NE68111                                    21336000000009709227C000054000000000560517700000000000000056051771800500644006440000000487380000004873800000048738100505100505111505111420                    000   65   00000205177                      0000000000012190600270184828800000107175000000000000000000000000000000000                                                            
SP28994  NEJOHNSON        MARTIN    E4829026450523621411 AVE J                    COUNCIL BLUFFS      IA51501                                    21337000000010701214C000010000000000107422800000000000000010742281231230763007630000000130440000001304400000013044061002061002100102090112                    00009065   0000000000000000074228           0000000000012120600012102130700000000000000000000000000002350700000000000                                                            
SP28994  NEJONES          PHILIP    G4805474010530506024 FLORENCE BLVD            OMAHA               NE68110    JONES          CYNTHIA   J11264521337000000010707624C000017831000000190483200000000000000019048321200840783007830000000230140000002301400000023014050605050605062005052015                    000   65   0000000000000000121732           0000000000012120600270157009600000000000000000000000000007314100000000000                                                            
SP28994  NEKNIGHT         CARLA     M5070880961003825515 WOODLAWN AVE             RALSTON             NE68127                                    21307000000011704265C000006962000000072353400000000000000007235340360360700007000                                 120403120403011504121506                    000   65   0000000000000000027334           0000000000012150600012221198000000000000000000000000000000000000000000000                                                            
SP28994  NELAUGHLIN       NANCY     J5059079820903593425 DREXEL ST                OMAHA               NE68107                                    21308000000012705390C000009867000000107617600000000000000010761760600600729007290000000214570000002145700000021457110105110105120105110110                    000   65   0000003540400000054072           0000000000012090600270188005500000020914000000000000000003194100000000000                                                            
SP28994  NEMUNYON         BARRY     L50674696700000010024 SEWARD                  OMAHA               NE681141254                                21339000000014710409C000001050000000010628900000000000000001062890240240974009740000000048910000000489100000004891043005043005052905042907                    000   65   00000001289                      0000000000012270600270156032900000000000000000000000000000000000000000000                                                            
SP28994  NEROESLER        MIRANDA   K50519875311047918510 VIA PONDEROSA           BUENA VISTA         CO81211                                    21339000000014710791C000005050000000054680900000000000000005468090480481199011990000000143970000001439700000014397061605061605071605061609                    000   65   0000001520300000026606           0000000000012150600270163841500000006011000000000000000001052000000000000                                                            
SP28994  NESNIDE          JOYCE     A506707714092656822 SOUTH EAST STREET         VALLEY              NE68064                                    21310000000015707199C000012500000000133272100000000000000013327210850840688006880000000200940000002009400000020094111804111804010305020312                    000   65   0000000000000000082721           0000000000012060600012285579400000000000000000000000000004101300000000000                                                            
SP28994  NELUFT           LILA      J507807617110756913 A ST                      LINCOLN             NE68502                                    21303000000016700204C000008000000000087234200000000000000008723420600600699006990                                 112101112101010102120106                    000   65   0000002873000000043612           0000000000012150600012070181800000000000000000000000000000000000000000000                                                            
SP28994  NERAMSIER        MICHAEL   T508944209012474330 N 32ND ST                 LINCOLN             NE68502    RAMSIER        AMBER     W00000021303000000016701514C000012500000000133205700000000000000013320571281280777007770000000168650000001686500000016865040604040604011705011715                    000   65   0000000000000000082057           0000000000012220600012240730700000000000000000000000000004532200000000000                                                            
SP28994  NEBRACKETT       KIM       A5691375841111611905 AVE C                    SCOTTSBLUFF         NE69361                                    21340000000021707953C000014000000000150704200000000000000015070421200600788007880000000181890000001818900000018189091704091704101704121814                    000   65   0000006731700000039725           0000000000012040600012271569100000020637000000000000000001217800000000000                                                            
SP28994  NEYAGER          TERRY     T5089234610815653012 10TH AVE                 COUNCIL BLUFFS      IA51501                                    21340000000021711151C000011386000000124463300000000000000012446330610610784007840000000252830000002528300000025283041505041505061005051010                    000   65   0000004232000000063713           0000000000012110600270153522200000019269000000000000000002900900000000000                                                            
SP28994  NEMORAGUES       JAMES     M507762495051056824 N 164TH                   OMAHA               NE68118    MORAGUES       KATHLEEN  A01015721347000000024710488C000025000000000256309200000000000000025630920620380707007070000000515270000005152700000051527110604110604021505031810                    000   65   0000000000000000063092           0000000000012180600012282056600000000000000000000000000000774800000000000                                                            
SP28994  NESCHLIESMAN     KENNETH   J5032878320801341603 ENGLEWOOD DR             BELLEVUE            NE680053011SCHLIESMAN     MARY      A03034021312000000025700994C000025047000000266671200000000000000026667121201040724007240000000312930000003129300000031293061702061702071702091712                    000   65   00000162012                      0000000000012200600012111092800000037832000000000000000000000000000000000                                                            
SP28994  NESLATUNAS       SHAWN     M0015070480724745046 MIAMI ST                 OMAHA               NE68123                                    21312000000025702930C000005050000000053646400000000000000005364640360360975009750                                 090903090903101503111506                    000   65   0000001031900000021145           0000000000012120600012203751800000000000000000000000000000000000000000000                                                            
SP28994  NEPITTS          JACKIE    A508807058021265108 EASTERN AVE               SHELBY              IA51570                                    21312000000025703116C000012708780000136489800000000000000013648980480480649006490000000323650000003236500000032365101703101703111703111707                    000   65   0000003420400000059816           0000000000012010600012211786400000001920000000000000000000335700000000000                                                            
SP28994  NEWHEATLEY       JEFFREY   B505150815051873709 MARSHALL AVE              LINCOLN             NE68510    WHEATLEY       HANNAH    C00000021306000000026700793C000011100000000116967000000000000000011696700610610775007750000000236740000002367400000023674032102032102051002061007                    000   65   0000000000000000059670           0000000000012150600012088968800000000000000000000000000000031600000000000                                                            
SP28994  NEBROZEK         JAMES     M5089625120320684131 N 11TH ST                LINCOLN             NE68521                                    21306000000026701518C000020000000000209242700000000000000020924270490490649006490000000500030000005000300000050003111802111802020103020107                    000   65   0000000000000000092427           0000000000012260600012141248000000000000000000000000000000000000000000000                                                            
SP28994  NEZIER           MATTHEW   R5088866321121731630 SW 13TH STREET CIR       LINCOLN             NE68522    ZIER           JENNIFER  M06027521306000000026701542C000026690000000288008800000000000000028800881810590790007900000000276130000002761300000027613120602120602021803051918                    000   65   0000014380100000067287           0000000000012280600012143061500000004468000000000000000000209100000000000                                                            
SP28994  NEREZEK          JON        5087493361104522234 SHELDON APT#1            LINCOLN             NE68503                                    21306000000026703388C000003727580000039627100000000000000003962710370370999009990                                 112603112603011504121506                    000   65   0000000777800000015735           0000000000012150600012220003300000000000000000000000000000000000000000000                                                            
SP28994  NECAHALANE       TIMOTHY   W031481319030858720 7TH ST                    SPEARFISH           SD57783                                    21306000000026705201C000009332000000100740300000000000000010074030490490928009280000000253720000002537200000025372092904092904112504102508                    000   65   0000002730300000046900           0000000000012220600012273483300000005639000000000000000000968600000000000                                                            
SP28994  NEHEINBIGNER     LEROY     S5065806150000002415 W A ST                   LINCOLN             NE685221114HEINBIGNER     JUDY      A00000021306000000026705519C000152542280001718009300000000000000171800931800960749007490000001590850000015908500000159085111704111704121504011420                    000   65   00000725772                      0000000000012050600012280248100000398426000000000000000000000000000000000                                                            
SP28994  NEOLIVER         TIMOTHY    5057875440506545860 SHELTON RD               SHELTON             NE688762519OLIVER         LYNELLE    05016621338000000027701042C000017057000000197939700000000000000019793970600600725007250                                 122901122901020102010107                    000   65   0000010796500000165732           0000000000012280600012077652100000000000000000000000000000000000000000000                                                            
SP28994  NEBUCK           JEFFREY   R50892968103065912 REDWOOD DR                 KEARNEY             NE68845    BUCK           DEBORAH   A01185921338000000027705625C000012460000000134219000000000000000013421901211100577005770000000148290000001482900000014829041504041504062004062014                    000   65   0000000000000000096190           0000000000012080600012242620800000000000000000000000000004854400000000000                                                            
SP28994  NEASTORGA        FRANCISCO  350805267050168903 N HARRISON ST             LEXINGTON           NE68850                                    21338000000027708498C000008047000000084711900000000000000008471190600600724007240000000168330000001683300000016833033005033005041805031810                    000   65   0000000000000000042419           0000000000012200600270150753900000000000000000000000000001808000000000000                                                            
SP28994  NEHULINSKY       JERRY     D5055257461223421721 ALLEN CT                 GRAND ISLAND        NE688031525                                21341000000032702752C000013557000000147825100000000000000014782510610610650006500000000291260000002912600000029126031103031103052003062008                    000   65   0000004913700000073414           0000000000012140600012165313300000003534000000000000000000528000000000000                                                            
SP28994  NEULMER          BLANE     W5060626640101821217 17TH ST                  CENTRAL CITY        NE68826    ZYWIEC         JAMIE      07278321341000000032708484C000010000000000107779700000000000000010777970620310868008680000000224550000002245500000022455101304101304123004113009                    000   65   0000004086100000036936           0000000000012150600012278760900000001236000000000000000000111700000000000                                                            
SP28994  NESPITZ          ISAAC      5050832720203818898 AUSTIN ST                GARDEN CITY         ID83714    SPITZ          APRIL     L02238121341000000032711448C000006450000000073963900000000000000007396390480481224012240000000195910000001959100000019591070705070705081005071009                    000   65   0000003432400000060315           0000000000012190600270167775800000014477000000000000000002543900000000000                                                            
SP28994  NECARVER         CHRISTIAN K5089858450000003408 HOWARD ST APT16          OMAHA               NE68105                                    21314000000033701903C000004375110000047081600000000000000004708160480480974009740000000118960000001189600000011896060503060503071003061007                    000   65   0000001131700000021988           0000000000012180600012182310800000000202000000000000000000039300000000000                                                            
SP28994  NESTODOLA        ERIC      D5082561970808844833 ASPEN DR                 OMAHA               NE68157    STODOLA        RANDALL   L05085721314000000033702228C000003557000000037034000000000000000003703400490480599005990000000087170000000871700000008717080903080903092403082407                    000   65   00000014640                      0000000000012080600012192932700000000448000000000000000000000000000000000                                                            
SP28994  NEATWELL         BARBARA   A5107660490224596227 N 78TH AVE               OMAHA               NE68134    ATWELL         CURTIS    A08076321314000000033705103C000018125000000190912200000000000000019091220620620707007070000000383290000003832900000038329102304102304012105012010                    000   65   0000000000000000096622           0000000000012120600012276322000000000000000000000000000003294900000000000                                                            
SP28994  NETHOMPSON       PATRICE   R5066889820605535223 SPRING ST #202           OMAHA               NE68106                                    21314000000033706376C000005425000000057024600000000000000005702460480481199011990000000150140000001501400000015014060605060605070605060609                    000   65   0000000000000000027746           0000000000012280600270161746500000000000000000000000000001026300000000000                                                            
SP28994  NEBETTIM         JOSE      A5054541850116671915 N LINCOLN                FREMONT             NE68025                                    21342000000034702107C000007550000000079188700000000000000007918870480480966009660000000199580000001995800000019958051204051204061204051208                    000   65   0000000000000000036887           0000000000012160600012248872900000000000000000000000000000479900000000000                                                            
SP28994  NEHANCOCK        SHARON    L5069029431025561403 E 1ST STREET             FREMONT             NE68025                                    21342000000034702457C000012200000000130479500000000000000013047951221220663006630000000150510000001505100000015051080504080504103004093014                    000   65   00000084795                      0000000000012220600012264384400000049399000000000000000000000000000000000                                                            
SP28994  NECARR           KEITH      505066234111971PO BOX 525                    ARLINGTON           NE68002                                    21342000000034702465C000018000000000191597700000000000000019159771211210838008380000000238560000002385600000023856080904080904102004092014                    000   65   0000000000000000115977           0000000000012110600012265173000000000000000000000000000006868100000000000                                                            
SP28994  NETORCZON        TIMOTHY   D5078021271026573427 53RD ST                  COLUMBUS            NE68601    TORCZON        SUSAN     L00000021343000000035703961C000044000000000473773000000000000000047377301210370577005770000000522130000005221300000052213032604032604051504051514                    000   65   0000023113900000106591           0000000000012050600012238468800000004932000000000000000000227400000000000                                                            
SP28994  NEHUGHES         RODRICK   R5065277220905392514 WESTSIDE AVE             NORFOLK             NE68701    HUGHES         SHIRLEY   J00000021344000000036700172C000018833730000217098600000000000000021709860600600689006890000000429440000004294400000042944012502012502031502061507                    000   65   0000010722600000180387           0000000000012180600012082252300000000000000000000000000000000000000000000                                                            
SP28994  KSCRALL          DIANA     L4985297520512491312 APPLE BLOSSOM LANE       Washington          MO63090    CRALL          ROBERT    G06195121275000000037700756C000014000000000167501800000000000000016750181201200899008990000000212120000002121200000021212080602080602090602100712                    000   67   00000275018                      0000000000012050600012121315100000088869000000000000000000000000000000000                                                            
SP28994  KSROTH           SHELLEY   N509523292090351PO BOX 261                    BASEHOR             KS66007                                    21275000000037701652C000030000000000317078000000000000000031707800600600549005490000000605560000006055600000060556082103082103092103082108                    000   67   0000000000000000170780           0000000000012070600012199161600000000000000000000000000001959800000000000                                                            
SP28994  NEROBINETT       RICHARD    50690102706126117100 ROCA RD                 BENNET              NE68317                                    21319000000038700029C000049589000000598356900000000000000059835691801201089010890000000678470000006784700000067847070800070800082000082015                    000   65   0000054013300000484536           0000000000012210600010966326000000070381000000000000000006313700000000000                                                            
SP28994  NEZUCHEGNA       SHERI     C5080480810115782631 SW 18TH ST               LINCOLN             NE68522                                    21319000000038700651C000005050000000054467400000000000000005446740480480947009470000000136670000001366700000013667020303020303030303020307                    000   65   0000001441400000025260           0000000000012220600012158434600000000000000000000000000000000000000000000                                                            
SP28994  NEVOSS           ROGER     C5066207730504435100 WINDLESHAM CT            LINCOLN             NE68516    VOSS           TWILA     L08044621319000000038701902C000040565000000436701100000000000000043670111200360652006520000000496440000004964400000049644040704040704050904040914                    000   65   0000020916800000101343           0000000000012040600012240974100000003141000000000000000000152200000000000                                                            
SP28994  NEMARTIN         BRIAN     A5050866231002687200 BALLARD AVE              LINCOLN             NE68507    MARTIN         RONALD    L02244621319000000038702913C000002500000000025770000000000000000002577000240240990009900                                 122204122204012205122206                    000   65   0000000000000000007700           0000000000012110600012291275100000000000000000000000000000000000000000000                                                            
SP28994  NEHAUDER         BRANDEL   D505272274042886486 210TH ST                  LINCOLN             NE68510    HAUDER         BRENT     L05286021319000000038703836C000010057000000105830200000000000000010583020600600679006790000000208740000002087400000020874092905092905110405100410                    000   65   0000000000000000052602           0000000000012140600270184122100000000000000000000000000003107300000000000                                                            
SP28994  NEAPPLEGARTH     WILLIAM    505940707010361517 W 11TH                    COZAD               NE69130    APPLEGARTH     DORIS      10095721346000000040700386C000025025000000293334200000000000000029333421201200835008350000000361880000003618800000036188050201050201060801080711                    000   65   0000000000000000430842           0000000000012180600012026755400000000000000000000000000008177700000000000                                                            
SP28994  NEHARVEY         RANDY     C505645453092648166 HILL CREST DR             NORTH PLATTE        NE69101                                    21346000000040709532C000020000000000213338800000000000000021333881201200758007580000000254020000002540200000025402041205041205051005041015                    000   65   00000133388                      0000000000012010600270152731100000092784000000000000000000000000000000000                                                            
SP28994  NENELSON         BRADLY    D5081316930102701908 EAST 2ND                 NORTH PLATTE        NE69101                                    21346000000040709970C000016000000000172049300000000000000017204931800560858008580000000170270000001702700000017027052505052505062505052520                    000   65   0000008044500000040048           0000000000012140600270159777300000035434000000000000000001764000000000000                                                            
SP28994  NEWHANNELL       PATRICK   S480132933070782400 WOODHILLS DR APT 403      GOSHEN              NY10924                                    21345000000044701052C000003170000000033987800000000000000003398780420421049010490                                 061203061203071803121806                    000   65   0000000716000000015718           0000000000012180600012184217300000000000000000000000000000000000000000000                                                            
SP28994  NEFROST          JAMIE     M50627201305028510415 NEWPORT AVE             OMAHA               NE68122    FROST          MICHAELA  A06285521345000000044702573C000007647000000079883800000000000000007988380600600642006420000000156290000001562900000015629070504070504081504071509                    000   65   0000000000000000034138           0000000000012260600012258741300000000000000000000000000000867400000000000                                                            
SP28994  NEKERCHEVAL      RICHARD   B5068086621120585010 ARCADIA AVE              OMAHA               NE68104                                    21316000000046701857C000006850000000073869500000000000000007386950480480928009280000000184830000001848300000018483051104051104061104051108                    000   65   0000001953400000034161           0000000000012130600012248555000000002541000000000000000000444400000000000                                                            
SP28994  NEPOULICEK       JOHN      P5057284220421526050 S 37 ST                  OMAHA               NE68107    POULICEK       ROSE      M09115721316000000046703182C000055897660000602719300000000000000060271931800960743007430000000556330000005563300000055633040105040105050105040120                    000   65   00000437427                      0000000000012220600270151035600000267755000000000000000000000000000000000                                                            
SP28994  NEALLGIRE        MICHAEL   C505844515091360805 NORTH 75TH ST             OMAHA               NE68114    ALLGIRE        LISA      A02087121351000000048702386C000005057000000054230900000000000000005423090240240644006440000000241430000002414300000024143080805080805090705080707                    000   65   0000001054600000026063           0000000000012290600270175103300000000984000000000000000000243300000000000                                                            
SP28994  NEMOELLER        CYNTHIA   M5070865170603825615 N 80TH ST                OMAHA               NE68134                                    21317000000049700083C000011047000000117327200000000000000011732720660660940009400                                 062701062701072701122706                    000   65   0000000000000000068572           0000000000012270600012040528700000000000000000000000000000000000000000000                                                            
SP28994  NEHARDER         SUSAN     J5069210030917627509 IVY LANE DR              LA VISTA            NE68128    HARDER         RANDALL   R00000021317000000049701000C000009150000000098733400000000000000009873341200571127011270000000137510000001375100000013751042004042004052004052014                    000   65   0000004380200000028532           0000000000012130600012235978900000008612000000000000000000561000000000000                                                            
SP28994  MOWELTON         WILLIAM   D49176727502166421701 S PECULIAR DR           PECULIAR            MO64078    WELTON         TINA       10166521276000000050700849C000003513500000037352900000000000000003735290360360599005990000000113620000001136200000011362030904030904040904030907                    000   60   0000000663300000015546           0000000000012110600012235517500000000000000000000000000000014000000000000                                                            
SP28994  MOMACLEAN        JAMEY     R5241728050000003511 HARVARD                  INDEPENDENCE        MO64052                                    21277000000051700314C000008740000000092029300000000000000009202930480480790007900                                 121702121702011703121706                    000   60   0000000000000000046293           0000000000012180600012150279300000000000000000000000000000000000000000000                                                            
SP28994  MOMORTEN         AMANDA    S4889696460101834115 NORMAL AVE #104          LOS ANGLES          CA90029                                    21277000000051700402C000004890000000052724000000000000000005272400490480640006400000000125130000001251300000012513030503030503042003032007                    000   60   0000001241000000025830           0000000000012260600012162456300000000000000000000000000000000000000000000                                                            
SP28994  MODOBSON         ROBERT    D486782368052664614 W MAPLE STREET            RAYMORE             MO64083    DOBSON         SUZANNE   G12306021277000000051702790C000050000000000538308800000000000000053830881800610754007540000000500560000005005600000050056111205111205121505111520                    000   60   0000026055100000122537           0000000000012270600270189466600000159772000000000000000009441400000000000                                                            
SP28994  MODAJANI         IBRAHIM    515946132061768804 SOUTH 9TH ST              EDWARDSVILLE        KS66111                                    21278000000053700588C000006990000000071743900000000000000007174390480480865008650                                 120602120602010803120806                    000   60   00000018439                      0000000000012080600012147664200000000000000000000000000000000000000000000                                                            
SP28994  MOHATFIELD       JERRY     D39358573911125014005 CAIRO LN                DIXON               MO65459    HATFIELD       ELLEN     K12135221279000000054700336C000020420000000244629300000000000000024462931801800884008840000000246240000002462400000024624050802050802061502051517                    000   60   00000404293                      0000000000012140600012099195500000195446000000000000000000000000000000000                                                            
SP28994  MOPITTMAN        KERRY     C5003843200615408520 EVANSTON AVE             KANSAS CITY         MO641383347PITTMAN        RUBY      M10264021279000000054702032C000002050000000022102000000000000000002210200360360928009280000000070650000000706500000007065052604052604063004053007                    000   60   0000000635300000009667           0000000000012260600012251424300000000155000000000000000000021800000000000                                                            
SP28994  MOBARTLETT       LINDA     D48958898401285189 N STATE HWY 39             GREENFIELD          MO65665    BARTLETT       VIRGIL    L04145421279000000054703131C000038325000000409402700000000169000040940272400530863008630000000359010000003590100000035901051205051205061505061425                    000   60   0000018560700000075920           0000000000012290600270157210100000076140000000000000000004727100000000000                                                            
SP28994  MOPARK           AMANDA    L4879498860104853709 SW WINDERMERE DR         LEES SUMMIT         MO64082                                    21281000000056701826C000004700000000049186000000000000000004918600360361047010470000000159790000001597900000015979060904060904070904060907                    000   60   0000000000000000021860           0000000000012260600012249699500000000000000000000000000000049200000000000                                                            
SP28994  MOMURRAY         DAVID     B5449099510613761925 CLAY WOODS PK            LIBERTY             MO64068    MURRAY         LINDSAY   M08237721284000000061702196C000003050000000031898800000000000000003189880360360953009530000000102240000001022400000010224070704070704080704070707                    000   60   0000000000000000013988           0000000000012140600012258294300000000000000000000000000000058800000000000                                                            
SP28994  IACAGWIN         RICHARD   E4787061320627524906 TODD DR                  AMES                IA500147730                                21200000000062700395C000020214120000218047900000000000000021804790610600689006890000000431800000004318000000043180012902012902031502021507                    000   68   0000005878800000100279           0000000000012010600012083168000000000000000000000000000000000000000000000                                                            
SP28994  IARADEMACHER     MEGAN     J478064917081278312 S CEDAR ST                GRAETTINGER         IA51342                                    21200000000062700811C000009301450000099008700000000000000009900870480480724007240                                 102102102102120402120406                    000   68   0000001946900000040473           0000000000012040600012139656800000000000000000000000000000000000000000000                                                            
SP28994  IARENSHAW        COURTNEY   485026815000000404 E MAPLE STREET            ELKHART             IA50073                                    21201000000063701672C000003770000000039683700000000000000003968370360360715007150                                 110703110703121503111506                    000   68   0000000602200000013815           0000000000012010600012216077300000000000000000000000000000000000000000000                                                            
SP28994  IAVANZEE         KENT      R478705862022256305 NW RIDGELINE DR           ANKENY              IA50023    VANZEE         DIANE     L03125721201000000063702632C000070225000000726919700000000000000072691971800600724007240000000664150000006641500000066415060804060804071604061619                    000   68   0000000000000000246697           0000000000012260600012250721300000000000000000000000000005864100000000000                                                            
SP28994  IABARRETT        RICHARD   D479620828102948711 MAIN ST                   MAXWELL             IA50161    BARRETT        CAROL     M10235021201000000063703707C000040000000000431210000000000000000043121000630630574005740000000840060000008400600000084006111704111704031705021710                    000   68   0000000000000000312100           0000000000012290600012284676900000000000000000000000000011471500000000000                                                            
SP28994  IASIMS           CHARLES    479628408102847723 7TH ST SW                 CEDAR RAPIDS        IA52404                                    21230000000064701340C000013000000000137888500000000000000013788851201200788007880000000166420000001664200000016642062404062404072404062414                    000   68   0000000000000000078885           0000000000012200600012255858800000000000000000000000000004449500000000000                                                            
SP28994  IAFRANKLIN       FRED      A4835612891008502109 SOUTH SHORE DR           CLEAR LAKE          IA50428                                    21202000000068703175C000007550000000078871300000000000000007887130480480966009660000000198930000001989300000019893021004021004031504051608                    000   68   0000000000000000033713           0000000000012210600012230394400000000000000000000000000000301000000000000                                                            
SP28994  IASCOONOVER      SHARI     L4828091390215731443 NW 104TH ST              CLIVE               IA50325    SCOONOVER      JASON     B08307321202000000068704661C000014000000000151097400000000000000015109741830440749007490000000142910000001429100000014291100104100104021105021120                    000   68   0000008013800000030836           0000000000012290600012275978000000012385000000000000000000476600000000000                                                            
SP28994  IAFREES          JAMES     D482807957121564120 MANENGO RD  BOX 462       TIFFIN              IA523400462FREES          MELANIE   G00000021232000000069701059C000045100000000486301800000000000000048630182411410779007790000000402090000004020900000040209011005011005030105032925                    000   68   0000000000000000353018           0000000000012260600012294432500000000000000000000000000024342100000000000                                                            
SP28994  IALEONARD        DAVID     E3305612710608702517 N HALSTED ST #2          CHICAGO             IL60614                                    21233000000071700469C000006550000000070040300000000000000007004030480481224012240000000185420000001854200000018542021003021003031503021507                    000   68   0000001397900000031424           0000000000012080600012156776200000000000000000000000000000000000000000000                                                            
SP28994  IASCOTT          JESSICA   L4839666900610791150 LINCOLN RD APT 22        BETTENDORF          IA52722                                    21233000000071701998C000002400000000024887500000000000000002488750240240599005990                                 122304122304012505122506                    000   68   0000000233400000006541           0000000000012260600012292237000000000000000000000000000000000000000000000                                                            
SP28994  IASCOTT          JESSICA   L4839666900610791150 LINCOLN RD APT 22        BETTENDORF          IA52722                                    21233000000071702018C000002700000000028034600000000000000002803460240240990009900                                 122304122304012505122506                    000   68   0000000267900000007667           0000000000012260600012292248700000000000000000000000000000000000000000000                                                            
SP28994  IAWATERS         MICHAEL   G4810275071203741000 EAST MCKINLEY            DES MOINES          IA50315                                    21204000000075704571C000005500000000058715600000000000000005871560650530659006590000000118280000001182800000011828120503120503060504050509                    000   68   0000001710200000020054           0000000000012220600012221177400000001625000000000000000000190600000000000                                                            
SP28994  IASMITH          STEVE     W479907222092768108 SE 33RD COURT             DES MOINES          IA50317                                    21204000000075707481C000005550000000058431400000000000000005843140370370674006740000000180660000001806600000018066030305030305050105050208                    000   68   0000000901800000020296           0000000000012260600012303252600000001539000000000000000000346400000000000                                                            
SP28994  IASAXTON         ASHLEY    C4791153390127871426 BEAVER AVE               DES MOINES          IA50311                                    21204000000075708812C000002050000000021291900000000000000002129190250250839008390000000097150000000971500000009715072605072605091505081507                    000   68   0000000216000000005759           0000000000012220600270172514200000000239000000000000000000063800000000000                                                            
SP28994  IAMOON           SHIRLEY   R4836094310321473921 MUSKOGEE AVE             DES MOINES          IA50312    MOON           BYRON     M02154721205000000076701890C000007268000000081619700000000000000008161970490491099010990                                 112002112002012703122706                    000   68   0000003153400000057863           0000000000012150600012144608200000000000000000000000000000000000000000000                                                            
SP28994  IAGRAY           KERRI     A482119822030872202 E MONROE                  PLEASANTVILLE       IA50225                                    21205000000076705197C000006350000000067885700000000000000006788570480480943009430000000170870000001708700000017087081204081204092404112308                    000   68   0000001489900000028958           0000000000012220600012266568000000002661000000000000000000517100000000000                                                            
SP28994  IAKECK           ROBYN     L4788233430506622212 32ND STREET              DES MOINES          IA50310                                    21205000000076707432C000025000000000268733900000000000000026873392401800679006790000000205280000002052800000020528101005101005111705111625                    000   68   0000000000000000187339           0000000000012280600270185194300000000000000000000000000015749600000000000                                                            
SP28994  IAFRANKLIN       GORDON    C481745136052956911 N 14TH ST #9              INDIANOLA           IA50125                                    21206000000079702506C000006050000000063757800000000000000006375780360360890008900000000202450000002024500000020245040604040604050604040607                    000   68   0000000983900000022739           0000000000012110600012241082200000000148000000000000000000034100000000000                                                            
SP28994  IAMCGEE          KYLE      G4850882660113841140 W 14TH AVE               MARION              IA523022823MCGEE          JEAN      M10235521237000000082703876C000003739880000039869500000000000000003986950480480943009430000000100040000001000400000010004071204071204081204071208                    000   68   0000000775300000016954           0000000000012020600012260188300000001253000000000000000000273900000000000                                                            
SP28994  IABEAL           JEFF       4859486380825641104 N 4TH ST                 OSKALOOSA           IA52577                                    21239000000092701225C000008765000000092284200000000000000009228420360360775007750000000288030000002880300000028803022504022504032504022507                    000   68   0000001398700000032355           0000000000012010600012232717400000000126000000000000000000029100000000000                                                            
SP28994  IAHOSIC          EDIN       4812722310603755517 AURORA AVENUE            DES MOINES          IA50310    HOSIC          ALMA       03267721207000000096702401C000010695000000118653700000000000000011865370490480625006250                                 120502120502012003122006                    000   68   0000004088400000076153           0000000000012200600012147427400000000000000000000000000000000000000000000                                                            
SP28994  IABISHOP         HEATHER   L273724237120276340 NW GEORGETOWN BLVD        ANKENY              IA50023    BISHOP         JOSEPH    P07047821207000000096705952C000017345000000179101100000000000000017910110670550662006620000000364210000003642100000036421051804051804010505030810                    000   68   0000000000000000056511           0000000000012270600012246445600000000000000000000000000001100900000000000                                                            
SP28994  IADENTLINGER     KEITH     A485951213060966725 19TH ST S                 BROOKINGS           SD57006    DENTLINGER     BRENDA     01206521209000000098705366C000016000000000164421300000000000000016442131200610684006840000000190410000001904100000019041112205112205011506112115                    000   68   0000000000000000044213           0000000000012290600270190827600000000000000000000000000002637300000000000                                                            
SP28994  AZSELLERS        GENE      C5624621050911354511 TUMACACORI               AMADO               AZ85645                                    21001000000104700271C000003050000000032456300000000000000003245630480431299012990000000087070000000870700000008707011403011403021403011407                    000   63   0000000623200000013331           0000000000012060600012153744300000000000000000000000000000000000000000000                                                            
SP28994  AZARNDT          PATRICIA  A5695087030516392155 W DOVE WAY               AMADO               AZ85645    ARNDT          THOMAS    D10303821001000000104700749C000063000000000645879700000000000000064587971200710739007390000000762960000007629600000076296110503110503120503110513                    000   63   00000158797                      0000000000012160600012213311900000039714000000000000000000000000000000000                                                            
SP28994  AZWILKINSON      CURTIS    D5240483410317604335 S CALICO LN              TUCSON              AZ85735                                    21002000000105702148C000054000000000575730600000000000000057573061201200707007070000000670550000006705500000067055090204090204100204110214                    000   63   0000017545300000181853           0000000000012270600012269452400000108618000000000000000013942100000000000                                                            
SP28994  KSNYBERG         KIRK       503064043111171898 E 1600 RD                 BALDWIN CITY        KS66006                                    21289000000111702232C000012054000000121170400000000000000012117040600120679006790000000238780000002387800000023878100505100505110505100510                    000   67   0000000000000000006304           0000000000012220600270184749400000000000000000000000000000000000000000000                                                            
SP28994  KSDOUGHERTY      TORE       48090716609287531130 W 383RD ST              OSAWATOMIE          KS66064                                    21290000000112702488C000007650000000080686300000000000000008068630480480953009530000000202820000002028200000020282042204042204052204072308                    000   67   0000000000000000041863           0000000000012290600012243784100000000000000000000000000000484100000000000                                                            
SP28994  KSHUBBARD        RAYMOND   K523561135072848123 ALLISON ST                NEWTON              KS671143722                                21250000000114701841C000013887000000143459500000000000000014345950480481099010990                                 061302061302070502010407                    000   67   00000045895                      0000000000012070600012112789800000000000000000000000000000000000000000000                                                            
SP28994  KSALLEN          CARLOS    S512156817092774708 S YALE ST                 WICHITA             KS672072046                                21250000000114704495C000009247450000100873800000000000000010087380610610599005990000000195650000001956500000019565061003061003080103090108                    000   67   0000003608900000047904           0000000000012160600012184034200000003626000000000000000001492100000000000                                                            
SP28994  KSSEAMAN         SHIRLEY   M5115823330624542700 N BATTIN                 WICHITA             KS67220    SEAMAN         MARK      D07075421250000000114704743C000006051500000065113100000000000000006511310410410574005740                                 070203070203011004121006                    000   67   0000000000000000045981           0000000000012080600012189459600000000000000000000000000000000000000000000                                                            
SP28994  KSWRIGHT         CAROLYN    5124680360915438006 DRESDEN LN               WICHITA             KS672072741WRIGHT         HUBBARD    03303121250000000114710713C000001350000000014189100000000000000001418910250251003010030                                 111804111804011505121506                    000   67   0000000213900000004752           0000000000012150600012285891300000000000000000000000000000000000000000000                                                            
SP28994  KSNGUYEN         VINH       5091774270827572339 WELLINGTON PLACE         WICHITA             KS67204    DINH           LE        T07265821250000000114710721C000028232400000304224000002434099000030422401210750638006380000000344870000003448700000034487112404112404011505121514                    000   67   0000000000000000219000           0000000000012200600012285947300000000000000000000000000009797400000000000                                                            
SP28994  KSEMMONS         KIRK      A5097675070309681546 NORWOOD                  EL DORADO           KS67042                                    21250000000114711273C000011500000000117124000000000000000011712400480120990009900000000297250000002972500000029725122304122304020105010109                    000   67   0000001339100000007849           0000000000012060600012292301400000000000000000000000000000000000000000000                                                            
SP28994  KSHOGAN          THEODORE  J070344008000000527 BUTLER ST                 VALLEY CENTER       KS67147    HOGAN          KAREN     A00000021250000000114712153C000017000000000181217900000000000000018121790600250714007140000000360420000003604200000036042022405022405040105030110                    000   67   0000006631000000045869           0000000000012120600012302180000000001224000000000000000000084700000000000                                                            
SP28994  KSTAYLOR         DARYL      5151366480000005203 E PEMBROOK CT            WICHITA             KS67220    TAYLOR         ANNA       00000021250000000114714044C000002440490000027278500000000000000002727850180121199011990                                 062405110805072405122406                    000   67   0000000485000000012965           0000000000012260600270165476400000000000000000000000000000000000000000000                                                            
SP28994  KSUNKEL          DARYL     R5104248290201431336 N BRIARWOOD              DERBY               KS67037    UNKEL          EFFAT     Y04194521251000000115702475C000016025000000168427600000000000000016842760480480599005990000000396150000003961500000039615041403041403052503042507                    000   67   0000000000000000081776           0000000000012190600012170627900000000000000000000000000000069500000000000                                                            
SP28994  KSLEDFORD        RAYMOND   D5538492360619509493 SW 110TH ST              AUGUSTA             KS67010    LEDFORD        BETTY     S00000021252000000116701247C000010129000000107147100000000000000010714710600600609006090000000207680000002076800000020768111203111203121503111508                    000   67   0000000000000000058571           0000000000012010600012216770300000000000000000000000000000883400000000000                                                            
SP28994  KSMCREYNOLDS     JAMES     A5145699350310532009 MOYLE                    AUGUSTA             KS67010    MCREYNOLDS     SANDRA    S00000021252000000116701976C000033809240000355340100000000000000035534010610370574005740000000684990000006849900000068499090204090204102404102409                    000   67   00000172477                      0000000000012010600012270915700000013494000000000000000000000000000000000                                                            
SP28994  KSLIGON          MARILYN   A4345201180128352009 DRAGONFLY DR             EL DORADO           KS67042                                    21253000000117702575C000093900000000945354100000000000000094535411810130799007990000000906720000009067200000090672122204122204021005031220                    000   67   00000063541                      0000000000012220600012291432800000000000000000000000000000000000000000000                                                            
SP28994  KSBERGER         ROGER      511720222041459410 E 2ND ST                  ELLINWOOD           KS675261715BERGER         PATRICIA   08086221254000000118700256C000007176100000078975700000000000000007897570600600680006800000000156050000001560500000015605072902072902091202081207                    000   67   0000002813300000044014           0000000000012260600012117857800000000430000000000000000000067300000000000                                                            
SP28994  KSFELKE          MATT      D510760300000000742 SE 60 RD                  ELLINWOOD           KS675269227FELKE          MARY      J12186121254000000118700395C000006544000000070831500000000000000007083150480480625006250                                 122702122702012703122706                    000   67   0000001940700000034508           0000000000012180600012147800200000000000000000000000000000000000000000000                                                            
SP28994  KSTHOMAS         JOSH      C510788414122073445 AVE N                     RAYMOND             KS67573                                    21254000000118701443C000013576500000149285400000000000000014928540600600642006420000000292170000002921700000029217071504071504082704072709                    000   67   0000005280000000082404           0000000000012080600012260498600000014311000000000000000002233500000000000                                                            
SP28994  KSAUMILLER       GARY      G515506039042948103 W CONCORD PO BOX 16       HOLLYROOD           KS67450                                    21255000000119701269C000005000000000052192000000000000000005219200360360659006590                                 121903121903012004122006                    000   67   0000000000000000021920           0000000000012200600012223447900000000000000000000000000000000000000000000                                                            
SP28994  KSWAKE           CARLAN     5118003740000001305 W 8TH                    NEWTON              KS67114                                    21258000000122700689C000005300000000056197900000000000000005619790600600775007750000000113380000001133800000011338041002041002051502041507                    000   67   0000000000000000031979           0000000000012180600012096540500000000000000000000000000000017500000000000                                                            
SP28994  KSSEARS          DAVID     B514665460022274716 COTTONWODD LN             NEWTON              KS67114                                    21258000000122702297C000005051500000054141300000000000000005414130360361015010150                                 070803070803080803110806                    000   67   0000001230500000023958           0000000000012010600012189939700000000000000000000000000000000000000000000                                                            
SP28994  KSHAMLIN         JUSTIN    G5129028970721823932 W 33RD ST S              WICHITA             KS672171121HAMLIN         GREGORY   W08225621258000000122703775C000005550000000060559800000000000000006055980490480928009280000000152100000001521000000015210043004043004061504051508                    000   67   0000001919700000031401           0000000000012270600012246701200000002220000000000000000000363100000000000                                                            
SP28994  KSGOOLSBY        GEORGE    T46384991500000010217 PRAIRIE WOODS           WICHITA             KS67209                                    21260000000124703904C000003500000000037050400000000000000003705040300300928009280000000138850000001388500000013885090104090104100104040107                    000   67   0000000634100000014163           0000000000012210600012270811800000000000000000000000000000000000000000000                                                            
SP28994  KSKOSTER         MARGARET  R5095092450523401711 S IDA ST                 WICHITA             KS67211                                    21260000000124704528C000006652000000072372300000000000000007237230480481024010240000000184420000001844200000018442121004121004011005121008                    000   67   0000002045400000038069           0000000000012130600012290411300000005218000000000000000000971100000000000                                                            
SP28994  KSSPARMAN        BRANDON   D5098877281017802326 W DOUGLAS                WICHITA             KS67203    SPARMAN        MAUREEN   L01148321260000000124705029C000008602500000093412800000000000000009341280480480674006740000000222770000002227700000022277033005033005050405060409                    000   67   0000002789800000045980           0000000000012210600270150684300000008967000000000000000001477900000000000                                                            
SP28994  KSHESS           CURTIS    L49262254800000010220 ROSS LAKE DT            PEYTON              CO80831    HESS           TRACY     L00000021261000000125701505C000006040000000066417100000000000000006641710600600700007000000000131510000001315100000013151053102053102063002053007                    000   67   0000002308400000037087           0000000000012270600012108415600000000189000000000000000000030400000000000                                                            
SP28994  KSSCHAUER        JERRI     A5218019000000007330 W BARRINGTON CT          WICHITA             KS67212                                    21261000000125702268C000020000000000211815900000000000000021181590600600695006950000000418960000004189600000041896102502102502112502102507                    000   67   0000000000000000118159           0000000000012050600012140549200000000000000000000000000000426100000000000                                                            
SP28994  KSREIN           ROBYN     J511865714112678123 N WESTLINK APT 104        WICHITA             KS67212                                    21261000000125702604C000004050000000044250800000000000000004425080480481299012990000000118960000001189600000011896013003013003030803020807                    000   67   0000001294800000024560           0000000000012150600012156652500000000000000000000000000000000000000000000                                                            
SP28994  KSORMOND         BRANDON   W5109665931216828959 E FUNSTON                WICHITA             KS67207    ORMOND         GLORIA    G02095421261000000125707800C000004015000000043035600000000000000004303560370361117011170000000141900000001419000000014190051104051104062604052607                    000   67   0000000943800000019418           0000000000012050600012245104000000000213000000000000000000043700000000000                                                            
SP28994  KSPOGUE          ADAM      M513844427010170118 S COACH HOUSE             WICHITA             KS67235                                    21261000000125708678C000030000000000323336200000000000000032333621210510713007130000000379170000003791700000037917072604072604091604081614                    000   67   0000015049900000082863           0000000000012180600012259828700000028715000000000000000001581000000000000                                                            
SP28994  KSTEMPLE         DALLAS    D509880490060368233 S SHERIDAN ST             VALLEY CENTER       KS67147    TEMPLE         TIFFANY   R10237121261000000125709232C000026718000000288115800000000000000028811581810510849008490000000285160000002851600000028516090304090304102804102819                    000   67   0000014703700000062321           0000000000012200600012268702300000030605000000000000000001297200000000000                                                            
SP28994  KSSTRAUSZ        JERRY     K5124265070831431515 N PRESCOTT CIR           WICHITA             KS67212    STRAUSZ        DIANE     M10225821261000000125710057C000006500000000073072100000000000000007307210360360928009280000000233940000002339400000023394110404110404121504121507                    000   67   0000002757000000053151           0000000000012120600012283024300000002732000000000000000000526700000000000                                                            
SP28994  KSFOCKLER        DENNIS    D5106047610119581349 N LAKE EDGE CIR          GODDARD             KS67052    FOCKLER        DENISE    L09186221261000000125711682C000020076000000215373000000000000000021537301200470758007580000000257160000002571600000025716030405030405041505031515                    000   67   0000009463300000051497           0000000000012220600012303914100000027266000000000000000001483700000000000                                                            
SP28994  KSALLEN          JEANIE    W2816856620107499918 CHARTWELL CIR            WICHITA             KS672051575ALLEN          BILL      J10015021262000000126704492C000035114310000378616900000000000000037861691200480638006380000000427640000004276400000042764103004103004113004103014                    000   67   00000274738                      0000000000012070600012282128300000064479000000000000000000000000000000000                                                            
SP28994  KSHO             NHUNG     N509780069010154804 N WEST ST                 WICHITA             KS67203                                    21262000000126705970C000005050000000055066000000000000000005506600480481199011990000000144980000001449800000014498061505061505071505061509                    000   67   0000001573600000029924           0000000000012140600270163397400000006222000000000000000001183200000000000                                                            
SP28994  KSRUSSELL        TYSON      514804832000000106 N IOWA                    WINFIELD            KS67156    RUSSELL        KRISTA     00000021263000000127700477C000016500000000170916900000000000000017091690600600875008750000000351760000003517600000035176021902021902031002021007                    000   67   00000059169                      0000000000012040600012086635500000000194000000000000000000000000000000000                                                            
SP28994  KSESPINO         JUAN      M480234896060771821 N D ST                    ARKANSAS            KS67005                                    21263000000127705139C000009044000000093471500000000000000009347150240240762007620                                 121704121704011505121506                    000   67   0000000000000000030315           0000000000012150600012289424900000000000000000000000000000000000000000000                                                            
SP28994  OKJOHNSON        KARI      L4669109720319803413 MARLA LN                 EDMOND              OK73034    JOHNSON        BILL       09285021011000000128701666C000004700000000050179000000000000000005017900360360599005990                                 120803120803011504121506                    000   64   0000001088200000020908           0000000000012150600012220534700000000000000000000000000000000000000000000                                                            
SP28994  OKGRAHAM         HARLAN    L4467281021223623139 SW 38TH                  OKLAHOMA CITY       OK73119                                    21012000000129700956C000005050000000055405900000000000000005540590480480947009470000000139350000001393500000013935012303012303030103020107                    000   64   0000001828500000030774           0000000000012150600012155242600000000000000000000000000000000000000000000                                                            
SP28994  OKBANKSTON       SANDRA    I5384449150107451805 EASTHILLS DR             MOORE               OK731606640                                21012000000129702433C000015041500000161881100000000000000016188111200860688006880000000186970000001869700000018697121304121304012005122014                    000   64   0000000000000000114661           0000000000012150600012289457900000000000000000000000000005985900000000000                                                            
SP28994  OKREDMON         TERRY     L445668881091261RT 1 BOX 129                  RINGLING            OK73456    REDMON         EDITH     M03276521013000000130704487C000005070500000053940100000000000000005394010600600624006240000000105080000001050800000010508082505082505100505090510                    000   64   00000032351                      0000000000012110600270178612100000017501000000000000000000000000000000000                                                            
SP28994  OKDIXON          DAVID     L4446400580104634940 BAYLOR DR                BARTLESVILLE        OK74006    DIXON          GLORIA     07266521014000000131701018C000005950000000072591900000000000000007259190600600725007250000000144590000001445900000014459062102062102072102092107                    000   64   0000004424700000086672           0000000000012220600012114593200000000508000000000000000000099500000000000                                                            
SP28994  OKDIXON          DAVID     L4446400580104634940 BAYLOR DR                BARTLESVILLE        OK74006    DIXON          GLORIA     07266521014000000131701042C000022379000000252747300000000000000025274731201200763007630000000300820000003008200000030082071602071602080102123112                    000   64   00000289573                      0000000000012220600012115959400000090861000000000000000000000000000000000                                                            
SP28994  OKDIXON          DAVID     L4446400580104634940 BAYLOR DR                BARTLESVILLE        OK74006    DIXON          GLORIA     07266521014000000131702061C000005050000000052849200000000000000005284920480481024010240000000134700000001347000000013470073103073103090103110107                    000   64   00000023492                      0000000000012220600012195240200000000559000000000000000000000000000000000                                                            
SP28994  OKMURCH          DAKOTA    S523298313122578706 E 3RD                     CUSHING             OK74023                                    21015000000132705256C000002236000000023519800000000000000002351980250251072010720000000109930000001099300000010993051205051205063005053007                    000   64   0000000368300000007915           0000000000012010600270157431400000000238000000000000000000051100000000000                                                            
SP28994  OKYOUNG          DIEDRE    K440624775000000PO BOX 544                    NOEL                MO64854                                    21016000000133701388C000008536000000093366100000000000000009336610490490750007500                                 060502060502072502122506                    000   64   0000003000800000050053           0000000000012220600012110476400000000000000000000000000000000000000000000                                                            
SP28994  OKPYE            JESSE      559650274081479626 N 10                      ENID                OK73701                                    21016000000133701919C000007294000000079535400000000000000007953540480480790007900                                 091802091802102002112006                    000   64   0000002314500000042809           0000000000012210600012133418900000000000000000000000000000000000000000000                                                            
SP28994  OKRANEY          RANDY     L5127042030418591619 W OKLAHOMA               ENID                OK73703                                    21016000000133702428C000026000000000269859000000000000000026985901210360730007300000000318310000003183100000031831020503020503032003022013                    000   64   00000098590                      0000000000012150600012156702800000000000000000000000000000000000000000000                                                            
SP28994  OKSANDEFUR       NIKKI     L510728110013070115 W MULBERRY                ENID                OK73701    SANDEFUR       GARY      L08309521016000000133705872C000008061000000083536600000000000000008353660370370622006220000000256590000002565900000025659051304051304072004081907                    000   64   00000029266                      0000000000012150600012248660800000000874000000000000000000000000000000000                                                            
SP28994  OKBROOKS         RONNIE     440906393010983509 W SPRUCE                  ENID                OK73701                                    21016000000133708117C000008636000000090121500000000000000009012150630630499004990000000172190000001721900000017219101404101404021505011510                    000   64   00000037615                      0000000000012140600012279086800000013117000000000000000000000000000000000                                                            
SP28994  OKWASHBURN       TERRY     L4407051880707641202 W CHEROKEE AVE           ENID                OK73703                                    21016000000133711391C000028150000000285078000000000000000028507801810130711007110000000259460000002594600000025946061705061705081505071520                    000   64   00000035780                      0000000000012120600270163859500000000000000000000000000000000000000000000                                                            
SP28994  OKHUNT           LACEY      44596997303228710500 MCCLAIN                 YUKON               OK73099    HUNT           THOMAS    S05265321016000000133712546C000003061000000031713000000000000000003171300360360789007890000000099390000000993900000009939090705090705101505091508                    000   64   00000011030                      0000000000012180600270180384300000003826000000000000000000000000000000000                                                            
SP28994  OKPECK           BRIAN     K445640198120655122 S BURDEL                  ENID                OK73703                                    21016000000133713055C000020000000000212959800000000000000021295981810610669006690000000189130000001891300000018913100605100605121505111520                    000   64   00000129598                      0000000000012010600270184798500000077306000000000000000000000000000000000                                                            
SP28994  OKLONG           CHARLES   R440422954071439709 NE 30TH                   OKLAHOMA CITY       OK73105    LONG           DOROTHY   L01034021018000000135702800C000006995000000075425400000000000000007542540620440800008000000000154950000001549500000015495112203112203022104012109                    000   64   0000002741000000027344           0000000000012290600012216925300000000775000000000000000000077300000000000                                                            
SP28994  OKCLARK          ROBERT    H4416092130222542309 BELLEVIEW DR             OKLAHOMA CITY       OK73112                                    21018000000135705139C000010075500000107981200000000000000010798120640450684006840000000217940000002179400000021794032105032105082105072110                    000   64   0000003535800000036904           0000000000012210600270149773800000010249000000000000000001069700000000000                                                            
SP28994  OKWARDEN         PEGGY     J444626341110862924 SW 57TH                   OKLAHOMA CITY       OK73109                                    21020000000137700622C000005050000000055398700000000000000005539870480480924009240000000138920000001389200000013892070303070303081503071507                    000   64   0000001830600000030681           0000000000012180600012189126100000000436000000000000000000073100000000000                                                            
SP28994  OKFIDEL          PEARL     M386345708101637#7 OAKWOOD DRIVE              OKLAHOMA CITY       OK73121                                    21020000000137701713C000002050000000021000400000000000000002100040360361030010300000000068060000000680600000006806011005011005021005011008                    000   64   00000005004                      0000000000012110600012292098600000000684000000000000000000000000000000000                                                            
SP28994  OKCANNELLA       KATHLEEN  T3187454650423679501 NW 12TH PL               OKLAHOMA CITY       OK73127                                    21020000000137701799C000010340000000107754700000000000000010775470600600674006740000000212380000002123800000021238020405020405031505021510                    000   64   00000043547                      0000000000012110600012297734100000017633000000000000000000000000000000000                                                            
SP28994  OKWARD           JACK      J4467431410719651101 SOUTH 5TH                PONCA CITY          OK74601                                    21021000000138700122C000018060000000197084700000000000000019708470730721025010250                                 030300030300042800092806                    000   64   0000000000000000164847           0000000000012210600010934848200000000000000000000000000000000000000000000                                                            
SP28994  OKDOOLEY         MAUREEN    446763484010578408 N 4TH                     PONCA CITY          OK74601    DOOLEY         RYAN       10217721021000000138704166C000006350000000070705200000000000000007070520480480928009280000000176380000001763800000017638071304071304080104070108                    000   64   0000000000000000072052           0000000000012200600012255127800000000000000000000000000001164100000000000                                                            
SP28994  OKCOSTELLO       BRENDA    L4427010851123583406 CROWN                    PONCA CITY          OK74601                                    21021000000138704924C000050000000000509875000000000000000050987501810490649006490000000447130000004471300000044713102104102104010105010120                    000   64   0000000000000000098750           0000000000012220600012280134300000000000000000000000000002224900000000000                                                            
SP28994  OKALCORN         LANCE      440887159012785RT 2 BOX 87                   FAIRFAX             OK74637                                    21021000000138706145C000002510000000025419300000000000000002541930200201199011990000000140850000001408500000014085082505082505092405042407                    000   64   00000003193                      0000000000012040600270178583700000000228000000000000000000000000000000000                                                            
SP28994  OKSHARP          JOY        443901342041281103 BUTADIENO ST              BORGER              TX79007    DAVIS          CLEORA    J01273921022000000139701426C000003850000000042497100000000000000004249710490491224012240                                 082602082602101502121506                    000   64   0000001498200000024989           0000000000012140600012126414700000000000000000000000000000000000000000000                                                            
SP28994  OKLINTON         STEVE     W4458271951105682411 BLUEBIRD                 PONCA CITY          OK74604    LINTON         LANA       07117321022000000139703317C000013013000000139320600000000000000013932060650410669006690000000281400000002814000000028140011204011204071204101309                    000   64   0000005338700000038519           0000000000012280600012219856700000000930000000000000000000067100000000000                                                            
SP28994  OKHENRICHS       AARON     L446908143080976951 N 7TH ST                  BLACKWELL           OK74631    HENRICHS       SHAWNA     08097621022000000139705830C000013365000000152119900000000000000015211990620620499004990000000289520000002895200000028952011005011005041505031510                    000   64   0000009087300000093826           0000000000012090600012288643500000036293000000000000000003747300000000000                                                            
SP28994  OKRUFF           HENRY     A440865001060181115 ANNA AVE                  RED ROCK            OK74651                                    21022000000139705857C000001525000000016029300000000000000001602930240241047010470                                 120804120804011005121006                    000   64   0000000243800000005355           0000000000012110600012289477700000000000000000000000000000000000000000000                                                            
SP28994  OKCONNEYWERDY    CRUZ       446624542000000102 MCKINLEY ST               RED ROCK            OK74651                                    21022000000139706008C000001450000000014728300000000000000001472830240241040010400000000068510000000685100000006851011105011105022505012507                    000   64   00000002283                      0000000000012060600012294505800000000000000000000000000000000000000000000                                                            
SP28994  OKHAYS           JOHN      W4416277251001571118 N OKMULGEE AVE           OKMULGEE            OK74447    HAYS           DIANA     L00000021023000000140706566C000010550000000125586700000000000000012558670480481224012240000000332310000003323100000033231101005101005111005101009                    000   64   0000006512500000135742           0000000000012130600270185134500000032950000000000000000006867900000000000                                                            
SP28994  OKDICKINSON      RUSSELL   W4409455530708811205 S HIGH SCHOOL            ADA                 OK74820                                    21025000000142702868C000003950000000043156700000000000000004315670490490805008050                                 092302092302113002103006                    000   64   0000001316200000023405           0000000000012080600012134598700000000000000000000000000000000000000000000                                                            
SP28994  OKSANDIFER       ROY       L5874446161010511509 WEST MONTGOMERY          BROKEN ARROW        OK74012                                    21026000000143702296C000008550000000088210700000000000000008821070490490978009780000000223950000002239500000022395081104081104093004083008                    000   64   00000027107                      0000000000012080600012263829900000005112000000000000000000000000000000000                                                            
SP28994  OKCOYLE          GLEN      D44444490107014616280 E ROCK CREEK            NORMAN              OK73026    COYLE          MARY      J09145621027000000144700153C000017869130000191767800000000000000019176780610610940009400                                 042401042401061001091006                    000   64   0000000000000000130765           0000000000012040600012024634300000000000000000000000000000000000000000000                                                            
SP28994  OKWILLIAMS       WALLACE   S446923715062774806 W 9TH ST                  SHAWNEE             OK74801                                    21028000000145701027C000021950000000227769400000000000000022776940600600665006650000000447300000004473000000044730080202080202090202080207                    000   64   00000082694                      0000000000012080600012122908200000001627000000000000000000000000000000000                                                            
SP28994  OKWESTPHAL       DAVID      446464222082948PO BOX 426                    SEMINOLE            OK74868    WESTPHAL       MARY      K10274921028000000145702310C000025098000000272408800000000000000027240881211210699006990000000317740000003177400000031774071503071503091003081013                    000   64   00000214288                      0000000000012020600012190356100000094065000000000000000000000000000000000                                                            
SP28994  OKSANCHEZ        MANUEL     464233490122355PO BOX 906                    SEMINOLE            OK74818                                    21028000000145702740C000007352000000080136000000000000000008013600480480600506005000000188230000001882300000018823102203102203112203102207                    000   64   0000002459500000041565           0000000000012010600012213484400000001380000000000000000000233300000000000                                                            
SP28994  OKMEEKS          JOHN      N448546822100951PO BOX 8                      SEMINOLE            OK74868    MEEKS          CAROLYN   I11265821028000000145704885C000008231000000087926600000000000000008792660600600674006740000000173330000001733300000017333112604112604010505010410                    000   64   0000000000000000056166           0000000000012050600012287776400000000000000000000000000002044100000000000                                                            
SP28994  OKHUDSON         MINDY      441924931122574RR 4 BOX 559 D                SEMINOLE            OK74868                                    21028000000145706397C000003108000000032700400000000000000003270040240241199011990000000154320000001543200000015432082405082405100105090107                    000   64   0000000509300000011111           0000000000012290600270178323100000000611000000000000000000133300000000000                                                            
SP28994  OKHOOPER         SHEILA    A442608282061655RR 1 BOX 104                  MAUD                OK74854                                    21028000000145706717C000005050000000055676300000000000000005567630480481213012130000000147170000001471700000014717110105110105120505110509                    000   64   0000001926800000032495           0000000000012190600270188167000000009749000000000000000001644100000000000                                                            
SP28994  OKWHITAKER       CHRISTOPHES6310588501029869209 N HIWASSEE               JONES               OK73049                                    21029000000146703091C000001150000000012096100000000000000001209610240241199011990000000056950000000569500000005695083105083105100105090107                    000   64   0000000186100000004100           0000000000012200600270179441600000000223000000000000000000049200000000000                                                            
SP28994  KSGARCIA         GUSTAVO   R5127661950131792106 HALLS LANDING            MANHATTAN           KS66502    GARCIA         AMANDA    S01027321264000000147701004C000017364000000188366200000000000000018836620480480740007400                                 101002101002112002122006                    000   67   0000005322600000094036           0000000000012260600012135573900000000000000000000000000000000000000000000                                                            
SP28994  KSSOLIS          ARNULFO    611240380042667116 JUNEAU                    DODGE CITY          KS67801                                    21264000000147704061C000006000000000062903600000000000000006290360240240684006840000000281210000002812100000028121030405030405040405030407                    000   67   0000000878700000020249           0000000000012180600012303895200000000176000000000000000000040500000000000                                                            
SP28994  KSHARMON         REID      A511963147062078PO BOX 32                     POMONA              KS66076                                    21293000000151700725C000014048500000149116400000000000000014911640600600850008500                                 121401121401011502121506                    000   67   0000000000000000086314           0000000000012150600012075269600000000000000000000000000000000000000000000                                                            
SP28994  KSGOLDEN         PAUL      S512867818061067534 S MULBERRY                OTTAWA              KS66067                                    21293000000151701103C000009921000000108189100000000000000010818910490491099010990                                 053002053002071502121506                    000   67   0000003180600000057985           0000000000012040600012109310800000000000000000000000000000000000000000000                                                            
SP28994  KSKISSEL         KENDALL    443568993031752325 N SPRUCE                  GARNETT             KS66032    KISSEL         KENNA      01225521293000000151707687C000010044000000108774900000000000000010877490480480599005990000000255930000002559300000025593122904122904021005011009                    000   67   0000003051900000052830           0000000000012130600012292824500000008434000000000000000001460000000000000                                                            
SP28994  KSLOYA           GUSTAVO   M5119843340910634005 E SCHULMAN AVE           GARDEN CITY         KS67846    CARRERA        MARIA     E04205921267000000152700460C000014200000000169057200000000000000016905720610610749007490000000340020000003400200000034002121901121901020702020707                    000   67   0000011141200000159160           0000000000012230600012076229900000000000000000000000000000000000000000000                                                            
SP28994  KSGENNETTE       LAWRENCE  A5157036000616592910 LORAINE PLACE            GARDEN CITY         KS67846    GENNETTE       LANIETE    08156021267000000152701551C000005840000000061859100000000000000006185910600360749007490000000123930000001239300000012393081403081403091403091408                    000   67   0000001763500000016956           0000000000012140600012198165800000000000000000000000000000000000000000000                                                            
SP28994  KSGONZALEZ       MONA       5240480901006591909 8TH ST                   GARDEN CITY         KS67846    GONZALEZ       HENRY      03226521267000000152702730C000005050000000058558900000000000000005855890480480928009280000000146500000001465000000014650100604100604110504110408                    000   67   0000003037900000050210           0000000000012110600012274272900000006536000000000000000001080200000000000                                                            
SP28994  KSGONZALEZ       MONA       5240480901006591909 8TH ST                   GARDEN CITY         KS67846    GONZALEZ       HENRY      03226521267000000152702810C000007902500000088212000000000000000008821200370370499004990000000265180000002651800000026518100704100704113004113007                    000   67   0000003162300000060247           0000000000012110600012277722000000002969000000000000000000565600000000000                                                            
SP28994  KSHOUSER         SARAH     M5159287280329792113 HARVARD RD #E            LAWRENCE            KS660492628                                21294000000154702689C000010050000000110146200000000000000011014620480481222012220000000291250000002912500000029125103105103105113005103009                    000   67   0000003634800000060114           0000000000012050600270187875500000018390000000000000000003041500000000000                                                            
SP28994  IABLUM           NANCY     A485139294060878HHT 211 ACR #110              FT IRWIN            CA92310    BLUM           SHELIA    R07107821210000000156701428C000022845000000243887200000000000000024388720600600650006500000000476980000004769800000047698032403032403042103032108                    000   68   0000005820400000096168           0000000000012080600012167108500000004326000000000000000000714700000000000                                                            
