YNE1090211700309259955SEIDENGLANZ ROBERT        0001S06000002954400000000000000000000106000004924000011159907010207010200200000000                                                        109021170010902117000000000000REG01000010000306777092599SEIDENGLANZ ROBERT        110000152610000256340245205402452054007500060000073883000124102                                                                     100   3   0 10902117000 2 3 0      0      0  92599 0                                                                                                                                                                                                                                                                                                                                                            
YNE1090427050308269940VONASEK ARIC D            0004J06000000741300000000000000000000106000001235500010019907290207290200200000000                                                        109042705010904270500000000000REG02000020001609184082699VONASEK ARIC D            000000060110000092170059089600590896009250060000033847000051899                                                                     100  16   0 10904270500 0 0 4      0      0  82699 0      5                                                                                                                                                                                                                                                                                                                                                     
YNE1090434220309049930HAYNES SHAD A             0001S06000001766160000000000000000000106000002943600010189907030207030200200000000                                                        109043422010904342200000000000REG01000010000501585090499HAYNES SHAD A             000000093900000142310133280501332805011500060000048959000074196                                                                     100   5   0 10904342200 2 3 0      0      0  90499 0                                                                                                                                                                                                                                                                                                                                                            
YNE1090484540308319946HERNANDEZ CLISERIO        0001S07200001620504000000000000000000107200002250700009309907010207010200200000000                                                        109048454010904845400000000000REG01000010005605188083199HERNANDEZ CLISERIO        000000150790000207910127481301274813008250072000053478000073735                                                                     100  56   0 10904845400 2 3 0      0      0  83199 0                                                                                                                                                                                                                                                                                                                                                            
YCO1090583390309099934BALTUCH KRISTEN E         0000 000000000000000000000000000000000000000000000000102099      07220200200000000                                                        109058339010905833900000000000REG06000060080807844090999BALTUCH KRISTEN E         000000000000000001520032046000320460012990036000000000000000000                                                                     100 808   0 10905833900 0 0 0      0      0  90999 0      5                                                                                                                                                                                                                                                                                                                                                     
YNE1090931120310059924AGOSTA VITO A             0004J06000000000000000000000000000000106000000000000000000007300207300200200000000                                                        109093112010909311200000000000REG01000010001899999100599AGOSTA VITO A             000000189810000289920175926501759265008250060000098960000151155                                                                     100  18   0 10909311200 0 0 4      0      0 100599 0      5                                                                                                                                                                                                                                                                                                                                                     
YIA1090998200310059926ASHLEY MARY A             0000 000000000000000000000000000000000000000000000000111599      07230200200000000                                                        109099820010909982000000000000REG03000030034503428100599ASHLEY MARY A             000000000000000061020063431600634316008750060000000000000000000                                                                     100 345   0 10909982000 0 3 0      0      0 100599 0                                                                                                                                                                                                                                                                                                                                                            
YIA1091082170311069942BRUNING RICK L            0001S09600002910528000000000000000000109600003031800012209907310207310200200000000                                                        109108217010910821700000000000REG03000030070501030110699BRUNING RICK L            000000476230000645340211902902119029008250096000109986000149043                                                                     100 705   0 10910821700 2 3 0      0      0 110699 0                                                                                                                                                                                                                                                                                                                                                            
YMO1091082580310149940THOMAS RICK               0001S036000000000000000000000000000000000000000000000000000073002      00200000000                                                        109108258010910825800000000000          0007203605101499THOMAS RICK               000000003860000000000271154802711548012750036000085748000000000                                                                     100  72   0 10910825800 2 0 0      0      0 101499 0                                                                                                                                                                                                                                                                                                                                                            
YNE1091167230311039948BELLAMY CHARLES C         0000 000000000000000000000000000000000000000000000000120399      07120200200000000                                                        109116723010911672300000000000REG01000010005605188110399BELLAMY CHARLES C         000000000000000595780117060301170603010000120000000000000000000                                                                     100  56   0 10911672300 0 3 0      0      0 110399 0                                                                                                                                                                                                                                                                                                                                                            
YCO1091170440310209940EARNEST DALE O            0001S06000001380600000000000000000000106000002301000011209907090207090200200000000                                                        109117044010911704400000000000REG07000070086804531102099EARNEST DALE O            000000092740000184240114819401148194007500060000044899000089195                                                                     100 868   0 10911704400 2 3 0      0      0 102099 0                                                                                                                                                                                                                                                                                                                                                            
YNE1091233980311159957JEDLICKA PAUL R           0004J06000002628660000000000000000000000000000000000012109907300207300200200000000                                                        109123398010912339800000000000REG01000010005908381111599JEDLICKA PAUL R           000000264630000244960218884302188843007500060000119281000000000                                                                     100  59   0 10912339800 0 3 4      0      0 111599 0                                                                                                                                                                                                                                                                                                                                                            
YNE1091274310301200045CAP MARTY A               0001S06000001020780000000000000000000106000001701300002250007020207020200200000000                                                        109127431010912743100000000000REG01000010000202692012000CAP MARTY A               000000076350000116220076800100768001011740060000028170000042881                                                                     100   2   0 10912743100 2 3 0      0      0  12000 0                                                                                                                                                                                                                                                                                                                                                            
YKS1091277200310229950LEETE REBECCA J           0000 000000000000000000000000000000000000000000000000112299      07290200200000000                                                        109127720010912772000000000000REG08000080055302561102299LEETE REBECCA J           000000000000000108070092021900920219007750060000000000000000000                                                                     100 553   0 10912772000 0 3 0      0      0 102299 0                                                                                                                                                                                                                                                                                                                                                            
YKS1091508050311049940MASEM JAMES J             0000 000000000000000000000000000000000000000000000000121599      07220200200000000                                                        109150805010915080500000000000REG08000080056802656110499MASEM JAMES J             000000000000000054880105963501059635008250048000000000000000000                                                                     100 568   0 10915080500 0 3 0      0      0 110499 0                                                                                                                                                                                                                                                                                                                                                            
YNE1091538820311049943VOCKE CARLENA F           0001S04800000652800000000000000000000104800001360000012049907030207030200200000000                                                        109153882010915388200000000000REG02000020005203804110499VOCKE CARLENA F           000000016610000029070054914600549146008750048000014362000025134                                                                     100  52   0 10915388200 2 3 0      0      0 110499 0                                                                                                                                                                                                                                                                                                                                                            
YNE1091650270311159949WESLEY FRED W             0001S06000000339960000000000000000000106000000566600012159907290207290200200000000                                                        109165027010916502700000000000REG01000010005605188111599WESLEY FRED W             000000020740000031680026367800263678010490060000009349000014279                                                                     100  56   0 10916502700 2 3 0      0      0 111599 0                                                                                                                                                                                                                                                                                                                                                            
YKS1091657460311109940SPRECKER KELLY E          0004J06000003678540000000000000000000106000006130900012199907080207080200200000000                                                        109165746010916574600000000000REG08000080056602599111099SPRECKER KELLY E          000000391930000636650298442002984420008500060000176658000286962                                                                     100 566   0 10916574600 0 0 4      0      0 111099 0      5                                                                                                                                                                                                                                                                                                                                                     
YNE1091747480311309936WIESE TERRENCE L          0000 000000000000000000000000000000000000000000000000011500      07170200200000000                                                        109174748010917474800000000000REG01000010000309605113099WIESE TERRENCE L          000000000000002193750367184303671843010000102000000000000000000                                                                     100   3   0 10917474800 0 0 0      0      0 113099 0      5                                                                                                                                                                                                                                                                                                                                                     
YNE1091882760311199929LINHART JULIE A           0004J04800001724832000000000000000000104800003593400012239906280206280200200000000                                                        109188276010918827600000000000REG01000010005908381111999LINHART JULIE A           000000081920000144080147791101477911007750048000062965000110746                                                                     100  59   0 10918827600 0 0 4      0      0 111999 0      5                                                                                                                                                                                                                                                                                                                                                     
YNE1091887890311249952TOMPSETT THOMAS L         0004J12000004599360000000000000000000000000000000000012209907170207170200200000000                                                        109188789010918878900000000000REG02000020002103232112499TOMPSETT THOMAS L         000002255280001476250299694902996949009250120000418113000000000                                                                     100  21   0 10918878900 0 3 4      0      0 112499 0                                                                                                                                                                                                                                                                                                                                                            
YIA1091905870312079951THOMPSON JOYCE E          0001S120000089430000000000000000000000000000000000000011700071502      00200000000                                                        109190587010919058700000000000REG05000050034005519120799THOMPSON JOYCE E          000002315690000000000565007305650073009990120000419773000000000                                                                     100 340   0 10919058700 2 0 0      0      0 120799 0                                                                                                                                                                                                                                                                                                                                                            
YOK1091918660311229929LAY RICHARD               0000 000000000000000000000000000000000000000000000000122201      07260200200000000                                                        109191866010919186600000000000REG04000040062903827112299LAY RICHARD               000000000000000005200081028700810287007750036000000000000000000                                                                     100 629   0 10919186600 0 3 0      0      0 112299 0                                                                                                                                                                                                                                                                                                                                                            
YCO1091976650311239921PUTNAM MEGAN G            0001S04800000950352000000000000000000104800001979900012229907230207230200200000000                                                        109197665010919766500000000000REG07000070083907287112399PUTNAM MEGAN G            000000028560000064960083336700833367006608048000024695000056172                                                                     100 839   0 10919766500 2 3 0      0      0 112399 0                                                                                                                                                                                                                                                                                                                                                            
YIA1092032400311299947MATTHIES CINDY LOU        0001S04800002362320000000000000000000104800004921500012269907010207010200200000000                                                        109203240010920324000000000000REG03000030070401019112999MATTHIES CINDY LOU        000000057670000113420202715002027150007750048000044323000087177                                                                     100 704   0 10920324000 2 3 0      0      0 112999 0                                                                                                                                                                                                                                                                                                                                                            
YNE1092113830312109945SUBBERT KATHLEEN R        0001S04800001328352000000000000000000104800002767400001100007180207180200200000000                                                        109211383010921138300000000000REG01000010000606725121099SUBBERT KATHLEEN R        000000038050000066550109119701091197009990048000029248000051149                                                                     100   6   0 10921138300 2 3 0      0      0 121099 0                                                                                                                                                                                                                                                                                                                                                            
YNE1092138680312099938ZAUTKE DOUGLAS M          0004J04800001040880000000000000000000104800002168500001230007010207010200200000000                                                        109213868010921386800000000000REG02000020000706368120999ZAUTKE DOUGLAS M          000000049810000086950087682500876825008500048000038289000066836                                                                     100   7   0 10921386800 0 0 4      0      0 120999 0      5                                                                                                                                                                                                                                                                                                                                                     
YNE1092183390312039923WRIGHT DOUGLAS WAY        0000 000000000000000000000000000000000000000000000000010300      07190200200000000                                                        109218339010921833900000000000REG01000010001208020120399WRIGHT DOUGLAS WAY        000000000000000032850063260900632609007750048000000000000000000                                                                     100  12   0 10921833900 0 3 0      0      0 120399 0                                                                                                                                                                                                                                                                                                                                                            
YNE1092216630312099940LEWIS GEORGIA             0000 000000000000000000000000000000000000000000000000011800      07010200200000000                                                        109221663010922166300000000000REG01000010004906788120999LEWIS GEORGIA             000000000000000189050156272301562723007740060000000000000000000                                                                     100  49   0 10922166300 0 3 0      0      0 120999 0                                                                                                                                                                                                                                                                                                                                                            
YNE1092230240312099963BAUGOUS MARLEEN J         0001S04800001008720000000000000000000104800002101500001170007290207290200200000000                                                        109223024010922302400000000000REG01000010001301400120999BAUGOUS MARLEEN J         000000025830000044920081367900813679010830048000022335000038844                                                                     100  13   0 10922302400 2 3 0      0      0 120999 0                                                                                                                                                                                                                                                                                                                                                            
YKS1092249150312239939WIRTZ RICHARD W           0004J12000003088320000000000000000000112000002573600002010007090207090200200000000                                                        109224915010922491500000000000REG08000080056608338122399WIRTZ RICHARD W           000001845370001893080209472102094721008240120000334516000343165                                                                     100 566   0 10922491500 0 0 4      0      0 122399 0      5                                                                                                                                                                                                                                                                                                                                                     
YOK1092277690312089937CAMPBELL SHELDON E        0001S04800001026624000000000000000000104800002138800001170007110207110200200000000                                                        109227769010922776900000000000REG04000040061606714120899CAMPBELL SHELDON E        000000036590000061450082785800827858010830048000028124000047234                                                                     100 616   0 10922776900 2 3 0      0      0 120899 0                                                                                                                                                                                                                                                                                                                                                            
YNE1092313990312099940FITZGARRALD KENNET        0001S04800001002672000000000000000000104800002088900001090007310207310200200000000                                                        109231399010923139900000000000REG01000010000909760120999FITZGARRALD KENNET        000000025530000044650081068500810685010830048000022077000038608                                                                     100   9   0 10923139900 2 3 0      0      0 120999 0                                                                                                                                                                                                                                                                                                                                                            
YIA1092408610312159940BORDEN TERESA B           0001S084000020203680000000000000000000000000000000000013000072302      00200000000                                                        109240861010924086100000000000REG05000050034005519121599BORDEN TERESA B           000000381660000000000195501401955014008240084000095214000000000                                                                     100 340   0 10924086100 2 0 0      0      0 121599 0                                                                                                                                                                                                                                                                                                                                                            
YIA1092423390312159940THOMAS TOMMY D            0001S04800000999600000000000000000000104800002082500001150007080207080200200000000                                                        109242339010924233900000000000REG05000050035703127121599THOMAS TOMMY D            000000024470000047990080819800808198010830048000018808000036890                                                                     100 357   0 10924233900 2 3 0      0      0 121599 0                                                                                                                                                                                                                                                                                                                                                            
YNE1092430060312159926HOLCOMBE SHANNON R        0001S04800001002672000000000000000000104800002088900001150007150207150200200000000                                                        109243006010924300600000000000REG02000020002003891121599HOLCOMBE SHANNON R        000000028720000050230081068500810685010830048000022077000038608                                                                     100  20   0 10924300600 2 3 0      0      0 121599 0                                                                                                                                                                                                                                                                                                                                                            
YKS1092578570301140046BROWN TIM F               0001S12000002002680000000000000000000112000001668900002120007310207310200200000000                                                        109257857010925785700000000000REG08000080055305030011400BROWN TIM F               000000538360000740320127729201277292009740120000097591000134201                                                                     100 553   0 10925785700 2 3 0      0      0  11400 0                                                                                                                                                                                                                                                                                                                                                            
YOK1092654700312309965ROUCH JIMMY A             0001S04800001023408000000000000000000104800002132100001300007190207190200200000000                                                        109265470010926547000000000000REG04000040061908852123099ROUCH JIMMY A             000000036250000061260082744300827443010830048000027860000047083                                                                     100 619   0 10926547000 2 3 0      0      0 123099 0                                                                                                                                                                                                                                                                                                                                                            
YNE1092666920301120046ALBA GUADALUPE DE         0001S06000001478340000000000000000000106000002463900002120007010207010200200000000                                                        109266692010926669200000000000REG01000010000201122011200ALBA GUADALUPE DE         000000103380000157800111403401114034011740060000040684000062100                                                                     100   2   0 10926669200 2 3 0      0      0  11200 0                                                                                                                                                                                                                                                                                                                                                            
YNE1092676660301050051ZEALAND JEAN A            0001S12000004979880000000000000000000112000004149900002150007150207150200200000000                                                        109267666010926766600000000000REG01000010000306777010500ZEALAND JEAN A            000001549870001671570337698303376983008240120000274776000296352                                                                     100   3   0 10926766600 2 3 0      0      0  10500 0                                                                                                                                                                                                                                                                                                                                                            
YIA1092684740302260053WOOD ORVILLE F            0004J06000001394460000000000000000000106000002324100003150007100207100200200000000                                                        109268474010926847400000000000REG03000030034906015022600WOOD ORVILLE F            000000155870000246640115630801156308007740060000054024000085484                                                                     100 349   0 10926847400 0 0 4      0      0  22600 0      5                                                                                                                                                                                                                                                                                                                                                     
YNE1092720540301100026FRANKO LISA A             0000 000000000000000000000000000000000000000000000000021700      07180200200000000                                                        109272054010927205400000000000REG01000010001009057011000FRANKO LISA A             000000000000000001540011957400119574012240036000000000000000000                                                                     100  10   0 10927205400 0 3 0      0      0  11000 0                                                                                                                                                                                                                                                                                                                                                            
YOK1092762120301070048BEHLE CHARLES M           0001S048000000000000000000000000000000000000000000000000000073002      00200000000                                                        109276212010927621200000000000REG04000040061201937010700BEHLE CHARLES M           000000021070000000000046119200461192012240048000016192000000000                                                                     100 612   0 10927621200 2 0 0      0      0  10700 0                                                                                                                                                                                                                                                                                                                                                            
YNE1092797860301110036ROWE RUSSELL D            0004J04800000000000000000000000000000104800000000000000000007300207300200200000000                                                        109279786010927978600000000000REG02000020001701696011100ROWE RUSSELL D            000000031890000055670052230700522307012240048000024515000042792                                                                     100  17   0 10927978600 0 0 4      0      0  11100 0      5                                                                                                                                                                                                                                                                                                                                                     
YKS1092863770301130024MURRAY LINDSAY M          0000 000000000000000000000000000000000000000000000000031200      07090200200000000                                                        109286377010928637700000000000REG09000090068908657011300MURRAY LINDSAY M          000000000000000114560086426100864261008740049000000000000000000                                                                     100 689   0 10928637700 0 0 0      0      0  11300 0      5                                                                                                                                                                                                                                                                                                                                                     
YKS1092882900301140040FOWLER OKEMA              0000 000000000000000000000000000000000000000000000000030100      07300200200000000                                                        109288290010928829000000000000REG08000080055708555011400FOWLER OKEMA              000000000000000013730063136800631368009240037000000000000000000                                                                     100 557   0 10928829000 0 0 0      0      0  11400 0      5                                                                                                                                                                                                                                                                                                                                                     
YNE1092969210301250057STOTSVE WAYNE E           0001S120000056715600000000000000000000000000000000000021800070102      00200000000                                                        109296921010929692100000000000REG01000010002309820012500STOTSVE WAYNE E           000001795740000000000372269403722694009090120000311444000000000                                                                     100  23   0 10929692100 2 0 0      0      0  12500 0                                                                                                                                                                                                                                                                                                                                                            
YNE1092992710301260061MOODY RAY DEAN            0004J158000050195020000000000000000000000000000000000030500070502      00200000000                                                        109299271010929927100000000000REG01000010001402549012600MOODY RAY DEAN            000003460000000000000312756903127569008990158000518319000000000                                                                     100  14   0 10929927100 0 0 4      0      0  12600 0                                                                                                                                                                                                                                                                                                                                                            
YIA1093086680302170052BELL VAUGHN               0000 000000000000000000000000000000000000000000000000031700      07010200200000000                                                        109308668010930866800000000000REG03000030034405680021700BELL VAUGHN               000000000000000597690140613201406132009740120000000000000000000                                                                     100 344   0 10930866800 0 3 0      0      0  21700 0                                                                                                                                                                                                                                                                                                                                                            
YNE1093390360302080040FAGAN D S                 0001S04800000000000000000000000000000104800000000000000000007300207300200200000000                                                        109339036010933903600000000000REG02000020004702020020800FAGAN D S                 000000032480000056480081367900813679010830048000022335000038844                                                                     100  47   0 10933903600 2 3 0      0      0  20800 0                                                                                                                                                                                                                                                                                                                                                            
YNE1093414790303130050MILLIKAN JAMES C          0000 000000000000000000000000000000000000000000000000042800      06170200200000000                                                        109341479010934147900000000000REG02000020000702322031300MILLIKAN JAMES C          000000000000000534840234000302340003008240072000000000000000000                                                                     100   7   0 10934147900 0 3 0      0      0  31300 0                                                                                                                                                                                                                                                                                                                                                            
YCO1093429310304250043HATFIELD BRAD             0001S06000001529340000000000000000000106000002548900006050007290207290200200000000                                                        109342931010934293100000000000REG07000070083907932042500HATFIELD BRAD             000000153320000302910126202501262025007740060000050015000098810                                                                     100 839   0 10934293100 2 3 0      0      0  42500 0                                                                                                                                                                                                                                                                                                                                                            
YNE1093437980302230052RENNER GLEN A             0004J06000001513800000000000000000000106000002523000003230007010207010200200000000                                                        109343798010934379800000000000REG01000010000306777022300RENNER GLEN A             000000198640000305780120907701209077009240060000068848000105979                                                                     100   3   0 10934379800 0 0 4      0      0  22300 0      5                                                                                                                                                                                                                                                                                                                                                     
YNE1093475910302140059HAKENEWERTH ROBERT        0004J06000001629480000000000000000000106000002715800003200007020207020200200000000                                                        109347591010934759100000000000REG02000020002509191021400HAKENEWERTH ROBERT        000000434980000309200213331602133316009090060000160485000114081                                                                     100  25   0 10934759100 0 0 4      0      0  21400 0      5                                                                                                                                                                                                                                                                                                                                                     
YNE1093653380303150050SIMEON JOSEPH M           0004J03600000580248000000000000000000103600001611800004300007160207160200200000000                                                        109365338010936533800000000000REG02000020002608768031500SIMEON JOSEPH M           000000008690000017790045219600452196016490036000016082000032914                                                                     100  26   0 10936533800 0 0 4      0      0  31500 0      5                                                                                                                                                                                                                                                                                                                                                     
YOK1093687530302280034MACKIE TROY A             0000 000000000000000000000000000000000000000000000000041500      07230200200000000                                                        109368753010936875300000000000REG04000040061201937022800MACKIE TROY A             000000000000000162690076342500763425009740060000000000000000000                                                                     100 612   0 10936875300 0 0 0      0      0  22800 0      5                                                                                                                                                                                                                                                                                                                                                     
YNE1093700560303030048BAHRKE WILLIAM F          0004J06000003745320000000000000000000106000006242200004160007310207310200200000000                                                        109370056010937005600000000000REG01000010000909760030300BAHRKE WILLIAM F          000000465550000710700308873003088730007740060000171765000262215                                                                     100   9   0 10937005600 0 0 4      0      0  30300 0      5                                                                                                                                                                                                                                                                                                                                                     
YKS1093702540302240042BRIBIESCA RAY             0004J08400005484696000000000000000000108400006529400004100007050207050200200000000                                                        109370254010937025400000000000REG08000080067003092022400BRIBIESCA RAY             000001559920002239100403129804031298009090084000348930000500852                                                                     100 670   0 10937025400 0 0 4      0      0  22400 0      5                                                                                                                                                                                                                                                                                                                                                     
YKS1093923400303160065SAVAGE YVONNE             0001S084000019703040000000000000000000000000000000000042600070302      00200000000                                                        109392340010939234000000000000REG08000080056802656031600SAVAGE YVONNE             220000543020000000000177060201770602009990084000121464000000000                                                                     100 568   0 10939234000 2 0 0      0      0  31600 0                                                                                                                                                                                                                                                                                                                                                            
YCO1093967210303080046GRESKA ROBERT C           0001S061000025750540000000000000000000000000000000000052000071102      00200000000                                                        109396721010939672100000000000REG07000070086804531030800GRESKA ROBERT C           000000247510000000000209713102097131007490061000083431000000000                                                                     100 868   0 10939672100 2 0 0      0      0  30800 0                                                                                                                                                                                                                                                                                                                                                            
YIA1093988750303160058FRITZ JOANNE I            0001S060000006400800000000000000000000000000000000000041600070902      00200000000                                                        109398875010939887500000000000REG03000030035903376031600FRITZ JOANNE I            000000043430000000000052935300529353007740060000015053000000000                                                                     100 359   0 10939887500 2 0 0      0      0  31600 0                                                                                                                                                                                                                                                                                                                                                            
YNE1094018510303080040SCHAKAT JEFFREY A         0000 000000000000000000000000000000000000000000000000040300      07100200200000000                                                        109401851010940185100000000000REG02000020003305251030800SCHAKAT JEFFREY A         000000000000000009350042229200422292012240036000000000000000000                                                                     100  33   0 10940185100 0 3 0      0      0  30800 0                                                                                                                                                                                                                                                                                                                                                            
YOK1094018770303140023NUNN JEREMY               0000 000000000000000000000000000000000000000000000000043000      07220200200000000                                                        109401877010940187700000000000REG04000040060901857031400NUNN JEREMY               000000000000000008540030771400307714008490037000000000000000000                                                                     100 609   0 10940187700 0 3 0      0      0  31400 0                                                                                                                                                                                                                                                                                                                                                            
YIA1094027680303100040BENNETT LARRY D           0004J06000000888720000000000000000000000000000000000004150007050207050200200000000                                                        109402768010940276800000000000REG03000030070401019031000BENNETT LARRY D           000000100360000103620067252600672526011490060000034784000000000                                                                     100 704   0 10940276800 0 3 4      0      0  31000 0                                                                                                                                                                                                                                                                                                                                                            
YIA1094110410303210043DICKMAN DAN E             0001S18000000000000000000000000000000118000000000000000000007300207300200200000000                                                        109411041010941104100000000000REG02000020070308841032100DICKMAN DAN E             000004065620004393660421038404210384009740180000569564000615520                                                                     100 703   0 10941104100 2 3 0      0      0  32100 0                                                                                                                                                                                                                                                                                                                                                            
YCO1094203800303150049CROMBIE LORRAINE C        0001S04800000693456000000000000000000104800001444700004150007010207010200200000000                                                        109420380010942038000000000000REG07000070081607986031500CROMBIE LORRAINE C        000000032220000073200056153500561535010750048000018045000040990                                                                     100 816   0 10942038000 2 3 0      0      0  31500 0                                                                                                                                                                                                                                                                                                                                                            
YNE1094207370303270038KINGERY MELISSA K         0004J06000001481400000000000000000000106000002469000005050007150207150200200000000                                                        109420737010942073700000000000REG02000020002503804032700KINGERY MELISSA K         000000195480000299240118021701180217009240060000067752000103715                                                                     100  25   0 10942073700 0 0 4      0      0  32700 0      5                                                                                                                                                                                                                                                                                                                                                     
YNE1094212890303200030ALLEN GENE L              0004J04800000957120000000000000000000000000000000000004250007290207290200200000000                                                        109421289010942128900000000000REG01000010001009057032000ALLEN GENE L              000000054600000065810075243300752433012240048000030577000000000                                                                     100  10   0 10942128900 0 3 4      0      0  32000 0                                                                                                                                                                                                                                                                                                                                                            
YIA1094371520303230040FOX ALFRED                0001S03600000000000000000000000000000103600000000000000000007300207300200200000000                                                        109437152010943715200000000000REG02000020036306276032300FOX ALFRED                000000004140000009550047532800475328008740036000007652000017676                                                                     100 363   0 10943715200 2 3 0      0      0  32300 0                                                                                                                                                                                                                                                                                                                                                            
YNE1094380510304010049GUTHERLESS DOUGLAS        0001S12000004438680000000000000000000112000003698900005040007180207180200200000000                                                        109438051010943805100000000000REG02000020004706492040100GUTHERLESS DOUGLAS        000001439900001556410301534103015341008240120000244359000264132                                                                     100  47   0 10943805100 2 3 0      0      0  40100 0                                                                                                                                                                                                                                                                                                                                                            
YKS1094590570304070036WILLIAMS LON              0001S03600000771444000000000000000000103600002142900005200007090207090200200000000                                                        109459057010945905700000000000REG08000080055302561040700WILLIAMS LON              000000010290000019810065951000659510010240036000015228000029322                                                                     100 553   0 10945905700 2 3 0      0      0  40700 0                                                                                                                                                                                                                                                                                                                                                            
YNE1094604440304150049SUEPER WILLIAM A          0000 000000000000000000000000000000000000000000000000051500      07150200200000000                                                        109460444010946044400000000000REG02000020003608622041500SUEPER WILLIAM A          000000000000000851500328951303289513007640060000000000000000000                                                                     100  36   0 10946044400 0 0 0      0      0  41500 0      5                                                                                                                                                                                                                                                                                                                                                     
YMO1094675970305030038RATHJEN TRACEY            0004J03700000698782000000000000000000000000000000000006210006200206200200200000000                                                        109467597010946759700000000000          0007203599050300RATHJEN TRACEY            000000017740000024270054874100548741014000037000018895000000000                                                                     100  72   0 10946759700 0 3 4      0      0  50300 0                                                                                                                                                                                                                                                                                                                                                            
YIA1094677040304050049EHLERS HAZEL              0004J060000013108200000000000000000000000000000000000051100072402      00200000000                                                        109467704010946770400000000000REG05000050077402939040500EHLERS HAZEL              000000148020000000000105130101051301008990060000051301000000000                                                                     100 774   0 10946770400 0 0 4      0      0  40500 0                                                                                                                                                                                                                                                                                                                                                            
YOK1094778020304180024OFFUTT NICOLE RENE        0001S04800000553200000000000000000000104800001152500005150007010207010200200000000                                                        109477802010947780200000000000REG04000040061304668041800OFFUTT NICOLE RENE        000000032310000054750044646800446468010990048000015018000025450                                                                     100 613   0 10947780200 2 3 0      0      0  41800 0                                                                                                                                                                                                                                                                                                                                                            
YIA1094941530305040028MASON SHAWN P             0001S037000009338060000000000000000000000000000000000062000073102      00200000000                                                        109494153010949415300000000000REG05000050077806407050400MASON SHAWN P             000000009680000000000078759300787593009240037000012368000000000                                                                     100 778   0 10949415300 2 0 0      0      0  50400 0                                                                                                                                                                                                                                                                                                                                                            
YNE1095046620305150038SCHWAB DINA E             0000 000000000000000000000000000000000000000000000000061500      07190200200000000                                                        109504662010950466200000000000REG01000010005605188051500SCHWAB DINA E             000000000000000875530168416001684160011740120000000000000000000                                                                     100  56   0 10950466200 0 3 0      0      0  51500 0                                                                                                                                                                                                                                                                                                                                                            
YKS1095225080305050036KELLEY RICHARD L          0004J03600001134144000000000000000000103600003150400006180007240207240200200000000                                                        109522508010952250800000000000REG09000090054903582050500KELLEY RICHARD L          000000023050000048370093070200930702012990036000034117000071585                                                                     100 549   0 10952250800 0 0 4      0      0  50500 0      5                                                                                                                                                                                                                                                                                                                                                     
YNE1095388500305100049VONBUSCH TIMOTHY A        0000 000000000000000000000000000000000000000000000000062400      07080200200000000                                                        109538850010953885000000000000REG02000020001702648051000VONBUSCH TIMOTHY A        000000000000000010000029306100293061012740036000000000000000000                                                                     100  17   0 10953885000 0 3 0      0      0  51000 0                                                                                                                                                                                                                                                                                                                                                            
YNE1095404760305100044PARSONS KEVIN L           0001S06000000772320000000000000000000106000001287200006180007160207160200200000000                                                        109540476010954047600000000000REG02000020004309194051000PARSONS KEVIN L           000000069410000105480063004000630040008240060000021348000032442                                                                     100  43   0 10954047600 2 3 0      0      0  51000 0                                                                                                                                                                                                                                                                                                                                                            
YNE1095412920305170040ANDERSON CARRIE R         0004J06100001548058000000000000000000106100002537800007050007300207300200200000000                                                        109541292010954129200000000000REG02000020002506759051700ANDERSON CARRIE R         000000233320000355200116789801167898010740061000070032000106616                                                                     100  25   0 10954129200 0 0 4      0      0  51700 0      5                                                                                                                                                                                                                                                                                                                                                     
Y  1095511190305250052FERMIN MAGENCIA C         0001S12000002238600000000000000000000112000001865500007010007080207080200200000000                                                        109551119010955111900000000000REG06000060045702013052500FERMIN MAGENCIA C         000000658880000880290148255201482552008250120000104901000140151                                                                     100 457   0 10955111900 2 3 0      0      0  52500 0                                                                                                                                                                                                                                                                                                                                                            
YNE1095523640305180040COOK ALVIN                0001S08400002835252000000000000000000108400003375300007010007110207110200200000000                                                        109552364010955236400000000000REG01000010000409703051800COOK ALVIN                000000526180000665990201049602010496010240084000109788000138958                                                                     100   4   0 10955236400 2 3 0      0      0  51800 0                                                                                                                                                                                                                                                                                                                                                            
YNE1095546830305180040WOROBEC IRENE M           0004J060000016342800000000000000000000000000000000000061800071502      00200000000                                                        109554683010955468300000000000REG01000010001303622051800WOROBEC IRENE M           000000527610000000000217402302174023008740060000162273000000000                                                                     100  13   0 10955468300 0 0 4      0      0  51800 0                                                                                                                                                                                                                                                                                                                                                            
YKS1095640130305220037CAMERON DONALD L          0000 000000000000000000000000000000000000000000000000062500      07160200200000000                                                        109564013010956401300000000000REG08000080067108341052200CAMERON DONALD L          000000000000000301380161049401610494008240060000000000000000000                                                                     100 671   0 10956401300 0 3 0      0      0  52200 0                                                                                                                                                                                                                                                                                                                                                            
YNE1095725450305260058MOODY ARDIS R             0001S06000001898700000000000000000000106000003164500007020007090207090200200000000                                                        109572545010957254500000000000REG02000020001609183052600MOODY ARDIS R             000000180480000274570151343201513432009240060000052425000079757                                                                     100  16   0 10957254500 2 3 0      0      0  52600 0                                                                                                                                                                                                                                                                                                                                                            
YNE1095800920306050063MATHEW JACOB              0004J04800002311872000000000000000000104800004816400007200007030207030200200000000                                                        109580092010958009200000000000REG01000010003201520060500MATHEW JACOB              000000182960000348410192860801928608009000048000077957000148451                                                                     100  32   0 10958009200 0 0 4      0      0  60500 0      5                                                                                                                                                                                                                                                                                                                                                     
YNE1095813140306160038KESLAR WALLACE D          0004J06000001226040000000000000000000106000002043400007310007010207010200200000000                                                        109581314010958131400000000000REG02000020002603145061600KESLAR WALLACE D          000000204760000312410098115500981155008990060000056263000085842                                                                     100  26   0 10958131400 0 0 4      0      0  61600 0      5                                                                                                                                                                                                                                                                                                                                                     
YIA1095861720305300037BREDESON JON D            0004J03700000954415000000000000000000103700002579500007180007160207160200200000000                                                        109586172010958617200000000000REG05000050077402945053000BREDESON JON D            000000020760000045520080460300804603009240037000022117000048486                                                                     100 774   0 10958617200 0 0 4      0      0  53000 0      5                                                                                                                                                                                                                                                                                                                                                     
YNE1095893580306060025PARKS THOMAS E            0001S036000006179400000000000000000000000000000000000070100073102      00200000000                                                        109589358010958935800000000000REG02000020001609184060600PARKS THOMAS E            220000008380000000000050335000503350013990036000010150000000000                                                                     100  16   0 10958935800 2 0 0      0      0  60600 0                                                                                                                                                                                                                                                                                                                                                            
YIA1095897700306010035BAYLISS TERRY L           0001S06000001024260000000000000000000106000001707100007050007010207010200200000000                                                        109589770010958977000000000000REG03000030070501028060100BAYLISS TERRY L           000000083060000142480080757400807574009740060000024128000041387                                                                     100 705   0 10958977000 2 3 0      0      0  60100 0                                                                                                                                                                                                                                                                                                                                                            
YCO1095959000306070068BRACKEN GARY K            0004J036000006825600000000000000000000000000000000000071000071602      00200000000                                                        109595900010959590000000000000REG06000060080404873060700BRACKEN GARY K            220000079530000000000149645601496456008990036000080256000000000                                                                     100 804   0 10959590000 0 0 4      0      0  60700 0                                                                                                                                                                                                                                                                                                                                                            
YCO1096003460306090044FITCH KEVIN R             0001S04900000485541000000000000000000104900000990900008010007020207020200200000000                                                        109600346010960034600000000000REG06000060080807978060900FITCH KEVIN R             000000030780000068870036829000368290012740049000012569000028121                                                                     100 808   0 10960034600 2 3 0      0      0  60900 0                                                                                                                                                                                                                                                                                                                                                            
YIA1096036390306100033KELCHEN CYNTHIA M         0001S120000011301600000000000000000000000000000000000071000072302      00200000000                                                        109603639010960363900000000000REG05000050077402947061000KELCHEN CYNTHIA M         000000333660000000000066342200663422011740120000053122000000000                                                                     100 774   0 10960363900 2 0 0      0      0  61000 0                                                                                                                                                                                                                                                                                                                                                            
YNE1096118890306130025HEADLEE BRIAN J           0004J03700000581233000000000000000000000000000000000008010007260207260200200000000                                                        109611889010961188900000000000REG02000020002603145061300HEADLEE BRIAN J           000000017440000021340048814600488146009490037000015714000000000                                                                     100  26   0 10961188900 0 3 4      0      0  61300 0                                                                                                                                                                                                                                                                                                                                                            
YIA1096175220306120047ALTHEIMER BRUCE           0001S06100002423835000000000000000000106100003973500007290007260207260200200000000                                                        109617522010961752200000000000REG02000020076003215061200ALTHEIMER BRUCE           000000199230000339290190690401906904008990061000056567000096337                                                                     100 760   0 10961752200 2 3 0      0      0  61200 0                                                                                                                                                                                                                                                                                                                                                            
YNE1096190720306150061PATTEN SALLY F            0000 000000000000000000000000000000000000000000000000080100      07290200200000000                                                        109619072010961907200000000000REG01000010000806202061500PATTEN SALLY F            000000000000000077770063675600636756012990049000000000000000000                                                                     100   8   0 10961907200 0 3 0      0      0  61500 0                                                                                                                                                                                                                                                                                                                                                            
YNE1096238840306150048GUTSCHOW DALE L           0000 000000000000000000000000000000000000000000000000071500      07080200200000000                                                        109623884010962388400000000000REG01000010002309820061500GUTSCHOW DALE L           000000000000002237960286805602868056009490120000000000000000000                                                                     100  23   0 10962388400 0 0 0      0      0  61500 0      5                                                                                                                                                                                                                                                                                                                                                     
YIA1096305820306160058STARK ANNETTE R           0001S04800001635984000000000000000000104800003408300007310007010207010200200000000                                                        109630582010963058200000000000REG02000020070308841061600STARK ANNETTE R           000000079300000154030135816501358165009250048000031084000060381                                                                     100 703   0 10963058200 2 3 0      0      0  61600 0                                                                                                                                                                                                                                                                                                                                                            
YKS1096474380306260040COBERLEY HARVEY R         0001S06100001264652000000000000000000106100002073200008150007150207150200200000000                                                        109647438010964743800000000000REG08000080055508162062600COBERLEY HARVEY R         000000143990000205950099421200994212008990061000040885000058477                                                                     100 555   0 10964743800 2 3 0      0      0  62600 0                                                                                                                                                                                                                                                                                                                                                            
YIA1096494260306270047MATTHIES CINDY LOU        0001S04800002129040000000000000000000104800004435500008050007010207010200200000000                                                        109649426010964942600000000000REG03000030070401019062700MATTHIES CINDY LOU        000000102760000200440180504801805048008240048000040282000078573                                                                     100 704   0 10964942600 2 3 0      0      0  62700 0                                                                                                                                                                                                                                                                                                                                                            
YOK1096737640307070039TICE JERRY D              0001S04800000720384000000000000000000104800001500800008150007170207170200200000000                                                        109673764010967376400000000000REG04000040061404666070700TICE JERRY D              000000050310000084560055786900557869012990048000019722000033147                                                                     100 614   0 10967376400 2 3 0      0      0  70700 0                                                                                                                                                                                                                                                                                                                                                            
YCO1096826250307120049MOSES STEPHEN B           0000 000000000000000000000000000000000000000000000000081800      07230200200000000                                                        109682625010968262500000000000REG07000070082107663071200MOSES STEPHEN B           000000000000000057400125216301252163008990036000000000000000000                                                                     100 821   0 10968262500 0 3 0      0      0  71200 0                                                                                                                                                                                                                                                                                                                                                            
YOK1096848940307120071MITCHELL JEANETTE         0001S021000006178620000000000000000000000000000000000082500071200      00200000000                                                        109684894010968489400000000000REG04000040062903827071200MITCHELL JEANETTE         220000406760000000000138817601388176009740021000068286000000000                                                                     100 629   0 10968489400 2 0 0      0      0  71200 0                                                                                                                                                                                                                                                                                                                                                            
YCO1096902480307190040FLAGEOLLE ALLEN E         0000 000000000000000000000000000000000000000000000000082500      07290200200000000                                                        109690248010969024800000000000REG06000060086107726071900FLAGEOLLE ALLEN E         000000000000000047570105632001056320008240036000000000000000000                                                                     100 861   0 10969024800 0 3 0      0      0  71900 0                                                                                                                                                                                                                                                                                                                                                            
YNE1097085450308100053CROSLEY LEROY B           0004J03600001091664000000000000000000000000000000000009100007190207190200200000000                                                        109708545010970854500000000000REG02000020002608768081000CROSLEY LEROY B           220000040760000050720094665500946655009490036000029834000000000                                                                     100  26   0 10970854500 0 3 4      0      0  81000 0                                                                                                                                                                                                                                                                                                                                                            
YNE1097168600307310040JANSEN TERRY M            0001S17900004283470000000000000000000117900002393000008150007300207300200200000000                                                        109716860010971686000000000000REG01000010001203125073100JANSEN TERRY M            000001631850002489190205843102058431011500179000217445000331686                                                                     100  12   0 10971686000 2 3 0      0      0  73100 0                                                                                                                                                                                                                                                                                                                                                            
YKS1097185440307270061CAMPBELL ROBERT F         0000 000000000000000000000000000000000000000000000000090100      07190200200000000                                                        109718544010971854400000000000REG08000080056802656072700CAMPBELL ROBERT F         000000000000000025620055238700552387012990036000000000000000000                                                                     100 568   0 10971854400 0 3 0      0      0  72700 0                                                                                                                                                                                                                                                                                                                                                            
YIA1097250360307280053LINDGREN TIMOTHY K        0001S03600001593036000000000000000000103600004425100009050007120207120200200000000                                                        109725036010972503600000000000REG03000030070401117072800LINDGREN TIMOTHY K        000000030950000070970137859501378595009490036000022653000051942                                                                     100 704   0 10972503600 2 3 0      0      0  72800 0                                                                                                                                                                                                                                                                                                                                                            
YIA1097286750308030024SIMPSON ARTHUR            0001S06000001860960000000000000000000106000003101600009150007250207250200200000000                                                        109728675010972867500000000000REG05000050034003418080300SIMPSON ARTHUR            000000139600000273680144665701446657010240060000038358000075199                                                                     100 340   0 10972867500 2 3 0      0      0  80300 0                                                                                                                                                                                                                                                                                                                                                            
YNE1097349470308210047ALLEY MERRI J             0001S18100010150480000000000000000000118100005608000010150007080207080200200000000                                                        109734947010973494700000000000REG01000010001409813082100ALLEY MERRI J             000003927510005929550470178704701787011740181000515007000777530                                                                     100  14   0 10973494700 2 3 0      0      0  82100 0                                                                                                                                                                                                                                                                                                                                                            
YNE1097357040308210049STRAIGHT AMBRA            0000 000000000000000000000000000000000000000000000000092100      07160200200000000                                                        109735704010973570400000000000REG01000010001108837082100STRAIGHT AMBRA            000000000000001067830173980601739806009840120000000000000000000                                                                     100  11   0 10973570400 0 3 0      0      0  82100 0                                                                                                                                                                                                                                                                                                                                                            
YNE1097380390208110040BRAYMEN KELLY S           0000 00000000000000000000000000000000101400002650400009030000000000000000200000000                                                        109738039010973803900000000000REG01000010003201520081100BRAYMEN KELLY S           000000000000000000000084424400844244008240036000000000000032444                                                                     100  32   0 10973803900 0 3 0      0      0  81100 0                                                                                                                                                                                                                                                                                                                                                            
YNE1097438070308170051DUPREEZ MAURICE I         0004J06000001812480000000000000000000000000000000000009200007180207180200200000000                                                        109743807010974380700000000000REG02000020003103803081700DUPREEZ MAURICE I         000000317550000292470147154801471548008490060000082663000000000                                                                     100  31   0 10974380700 0 3 4      0      0  81700 0                                                                                                                                                                                                                                                                                                                                                            
YNE1097545310308230040WELLS GREGORY A           0000 000000000000000000000000000000000000000000000000092500      07010200200000000                                                        109754531010975453100000000000REG02000020002603145082300WELLS GREGORY A           000000000000000276220077746700777467009240060000000000000000000                                                                     100  26   0 10975453100 0 0 0      0      0  82300 0      5                                                                                                                                                                                                                                                                                                                                                     
YNE1097547210309020056KNUTH DENNIS W            0004J06000002016000000000000000000000106000003360000010150007190207190200200000000                                                        109754721010975472100000000000REG02000020002603145090200KNUTH DENNIS W            000000919300000542250278970902789709011990060000239305000141154                                                                     100  26   0 10975472100 0 0 4      0      0  90200 0      5                                                                                                                                                                                                                                                                                                                                                     
YKS1097846940308300048HAINSWORTH MEREI          0001S06100000829112000000000000000000106100001359200010150007290207290200200000000                                                        109784694010978469400000000000REG08000080056602599083000HAINSWORTH MEREI          000000104810000150230065246600652466008990061000026746000038338                                                                     100 566   0 10978469400 2 3 0      0      0  83000 0                                                                                                                                                                                                                                                                                                                                                            
YNE1097893130308300040GODBERSON JOSEPH A        0001S06000000825360000000000000000000106000001375600009300007310207310200200000000                                                        109789313010978931300000000000REG01000010003203214083000GODBERSON JOSEPH A        000000087250000133180066663200666632008740060000022713000034669                                                                     100  32   0 10978931300 2 3 0      0      0  83000 0                                                                                                                                                                                                                                                                                                                                                            
YNE1098042940309070051RUSHLAUMADSEN JANE        0004J120000050152800000000000000000000000000000000000101600072502      00200000000                                                        109804294010980429400000000000REG01000010001103675090700RUSHLAUMADSEN JANE        000002287770000000000325869703258697009240120000349748000000000                                                                     100  11   0 10980429400 0 0 4      0      0  90700 0                                                                                                                                                                                                                                                                                                                                                            
YKS1098092440309050042BENTON MARVA S            0001S048000006328320000000000000000000000000000000000101500072602      00200000000                                                        109809244010980924400000000000REG08000080056302579090500BENTON MARVA S            000000045800000000000052097100520971009750048000016571000000000                                                                     100 563   0 10980924400 2 0 0      0      0  90500 0                                                                                                                                                                                                                                                                                                                                                            
YNE1098152660309080042LE HUY M                  0001S03600000768744000000000000000000103600002135400010200007160207160200200000000                                                        109815266010981526600000000000REG01000010005502764090800LE HUY M                  000000020220000041210066217000662170009750036000012828000026142                                                                     100  55   0 10981526600 2 3 0      0      0  90800 0                                                                                                                                                                                                                                                                                                                                                            
YIA1098154150309080040KOUANG KEOPASITH          0000 000000000000000000000000000000000000000000000000101500      07150200200000000                                                        109815415010981541500000000000REG03000030034306264090800KOUANG KEOPASITH          000000000000000001140038155700381557013990024000000000000000000                                                                     100 343   0 10981541500 0 3 0      0      0  90800 0                                                                                                                                                                                                                                                                                                                                                            
YIA1098159770309140044BUTLER MICHAEL E          0001S12000002493720000000000000000000112000002078100010150007010207010200200000000                                                        109815977010981597700000000000REG03000030034505110091400BUTLER MICHAEL E          000000565010000766590149358701493587011240120000084559000114728                                                                     100 345   0 10981597700 2 3 0      0      0  91400 0                                                                                                                                                                                                                                                                                                                                                            
Y  1098178660310110052FERMIN MAGENCIA C         0001S03600000484884000000000000000000103600001346900011150007080207080200200000000                                                        109817866010981786600000000000REG06000060045702013101100FERMIN MAGENCIA C         000000011590000028220041696900416969009990036000006431000015664                                                                     100 457   0 10981786600 2 3 0      0      0 101100 0                                                                                                                                                                                                                                                                                                                                                            
